:0400000007EF00F016
:0A0008007D824CED52F019EF54F028
:10100000003738392F3435362A3132332D23303DED
:101010002B00000000DCCFD1350000000000C0151F
:101020003F6042A20D70A5EC363BAAB83F4F387620
:101030003F3CAA38338CBEBF350072313F18723145
:101040003F4CBB31330EEADDB555B38A38610B3600
:10105000BBABAA2A3E42F1533E55326C3E05A38BF0
:101060003EABAAAA3EB76DDB3E9A99193F6042A2F9
:101070000DCAF249710000804B0000803F0000C0A3
:101080003F00AAB83FC623F6B80040763F53796EBA
:10109000746178204572726F72004D6174682045EA
:1010A00072726F7200494E46494E49545900696E3A
:1010B00066696E6974790025302E3366004E414EA4
:0D10C00000696E66006E616E00256900001B
:1010CE0080C0B8F181C0B9F182C0BAF183C0BBF162
:1010DE00B8C160F1B9C161F1BAC162F1BBC163F1CE
:1010EE0084C0B8F185C0B9F186C0BAF187C0BBF132
:1010FE00B8C17CF1B9C17DF1BAC17EF1BBC17FF13E
:10110E00FF0E01016015A86FFF0E6115A96FFF0E8E
:10111E006215AA6F7F0E6315AB6FFF0E7C15906F75
:10112E00FF0E7D15916FFF0E7E15926F7F0E7F1550
:10113E00936F9051911192119311D8A4A9EF08F0C9
:10114E00ABEF08F0B6EF08F0000E0001806F000E56
:10115E00816F800E826F3F0E836F89EF1DF0800EC0
:10116E00621909E13F0E631960116111D8A4C2EF33
:10117E0008F0C4EF08F0CFEF08F0000E0001806F0A
:10118E00000E816F800E826F3F0E836F89EF1DF010
:10119E00ABBFE0EF08F0A805000EA959800EAA59C2
:1011AE007F0EAB59D8B0DEEF08F0E0EF08F0F1EFAC
:1011BE0008F093BFEFEF08F09005000E9159800EE6
:1011CE0092597F0E9359D8A0EFEF08F0F1EF08F087
:1011DE000DEF09F080C011F081C012F082C013F043
:1011EE0083C014F084C015F085C016F086C017F0C9
:1011FE0087C018F000EC2BF011C080F012C081F007
:10120E0013C082F014C083F089EF1DF0000E506FF2
:10121E00000E516F000E526F000E536F63BF1CEF26
:10122E0009F01AEF09F0E8EF09F093BF28EF09F083
:10123E00800E925D4B0E9359D8A028EF09F02AEF3D
:10124E0009F034EF09F0020E506F000E516F000ED0
:10125E00526F000E536FE8EF09F093BF40EF09F0A5
:10126E00800E925D3F0E9359D8A040EF09F042EFE9
:10127E0009F0E8EF09F0170E0001886F90C189F0B0
:10128E0091C18AF092C18BF093C18CF0886752EFB6
:10129E0009F05AEF09F08C358C338B338A3389334E
:1012AE00882F4DEF09F0810E000189250101A06FF5
:1012BE00FF0E00018A210101A16FFF0E00018B219B
:1012CE000101A26FFF0E00018C210101A36FA0513D
:1012DE0017080001886F90C189F091C18AF092C100
:1012EE008BF093C18CF088677FEF09F087EF09F0E0
:1012FE008C358C338B338A338933882F7AEF09F010
:10130E0089C0ACF18AC0ADF18BC0AEF18CC0AFF12B
:10131E000101A05117080001886FACC189F0ADC161
:10132E008AF0AEC18BF0AFC18CF0882BA4EF09F020
:10133E00D89089378A378B378C37882F9FEF09F0F3
:10134E00010190510001891913E101019151000130
:10135E008A190EE10101925100018B1909E1010177
:10136E00935100018C19D8A4BFEF09F0C1EF09F019
:10137E00E8EF09F0010E0101AC150001886F000EB7
:10138E000101AD150001896F000E0101AE150001BE
:10139E008A6F000E0101AF1500018B6F8851020894
:1013AE000101506F000E000189550101516F000EB1
:1013BE0000018A550101526F000E00018B5501018B
:1013CE00536F800E0101921909E17F0E931990114E
:1013DE009111D8A4F5EF09F0F7EF09F063EF0AF0D9
:1013EE00800EAA1909E13F0EAB19A811A911D8A4B4
:1013FE0003EF0AF005EF0AF010EF0AF0000E0001FD
:10140E00806F000E816F800E826F3F0E836F89EFAB
:10141E001DF0ABBF1FEF0AF0A805000EA959800EF4
:10142E00AA593F0EAB59D8A01FEF0AF021EF0AF0D0
:10143E003DEF0AF07FBF28EF0AF026EF0AF033EFF8
:10144E000AF0000E0001806F000E816F000E826F99
:10145E00000E836F89EF1DF084C080F085C081F08F
:10146E0086C082F087C083F089EF1DF07FBF44EF06
:10147E000AF042EF0AF058EF0AF084C003F085C07C
:10148E0004F086C005F087C006F0BAEC54F003C035
:10149E0080F004C081F005C082F006C083F089EFB1
:1014AE001DF0000E0001806F000E816F000E826F26
:1014BE00000E836F89EF1DF0800E921909E13F0E29
:1014CE00931990119111D8A46FEF0AF071EF0AF0F1
:1014DE009EEF0AF07FBF78EF0AF076EF0AF094EFF6
:1014EE000AF0000E426E000E436E800E446E3F0EEA
:1014FE00456E80C046F081C047F082C048F083C080
:10150E0049F009EC34F042C080F043C081F044C091
:10151E0082F045C083F089EF1DF080C080F081C05D
:10152E0081F082C082F083C083F089EF1DF0400EFF
:10153E007F197C117D117E11D8A4A8EF0AF0AAEFB5
:10154E000AF0C6EF0AF080C021F081C022F082C0FE
:10155E0023F083C024F080C025F081C026F082C025
:10156E0027F083C028F0F4EC31F021C080F022C0C7
:10157E0081F023C082F024C083F089EF1DF03F0E6E
:10158E007F197C117D117E11D8A4D0EF0AF0D2EF15
:10159E000AF0EDEF0AF063BFD7EF0AF0D9EF0AF0C9
:1015AE00EDEF0AF080C04EF081C04FF082C050F0D7
:1015BE0083C051F060EC2DF04EC080F04FC081F032
:1015CE0050C082F051C083F089EF1DF080C003F04F
:1015DE0081C004F082C005F083C006F027EC55F000
:1015EE0003C070F104C071F105C072F106C073F151
:1015FE00800E0101AA190BE17F0EAB19A811A911DA
:10160E00D8B40CEF0BF00EEF0BF027EF0BF0A85148
:10161E00A911AA11AB11D8B417EF0BF019EF0BF0FB
:10162E0027EF0BF0800EAA1909E13F0EAB19A81196
:10163E00A911D8A425EF0BF027EF0BF0F7EF0BF065
:10164E0070C1B4F171C1B5F172C1B6F173C1B7F128
:10165E007FBF36EF0BF034EF0BF050EF0BF0000EB8
:10166E00426E000E436E800E446E3F0E456EB4C148
:10167E0046F0B5C147F0B6C148F0B7C149F009EC24
:10168E0034F042C0B4F143C0B5F144C0B6F145C028
:10169E00B7F1010163BF58EF0BF056EF0BF0EDEF12
:1016AE000BF0000EA8250001886F000E0101A92184
:1016BE000001896F800E0101AA2100018A6FC00E00
:1016CE000101AB2100018B6F010150510001881106
:1016DE008C6F01015151000189118D6F0101525121
:1016EE0000018A118E6F0101535100018B118F6F12
:1016FE008C518D118E118F11D8A488EF0BF08AEFBB
:10170E000BF0CFEF0BF0000E02011C6F210E1B6FC2
:10171E00B4C13EF0B5C13FF0B6C140F0B7C141F023
:10172E00B4C13AF0B5C13BF0B6C13CF0B7C13DF023
:10173E008DEC53F03AC042F03BC043F03CC044F055
:10174E003DC045F0B4C13EF0B5C13FF0B6C140F06A
:10175E00B7C141F0B4C13AF0B5C13BF0B6C13CF0EF
:10176E00B7C13DF08DEC53F03AC046F03BC047F0A8
:10177E003CC048F03DC049F009EC34F042C0B4F131
:10178E0043C0B5F144C0B6F145C0B7F1EDEF0BF073
:10179E0001015005511152115311D8A4D9EF0BF07C
:1017AE00DBEF0BF0EDEF0BF0B4C103F0B5C104F0BD
:1017BE00B6C105F0B7C106F0BAEC54F003C0B4F1EF
:1017CE0004C0B5F105C0B6F106C0B7F1B4C180F0E2
:1017DE00B5C181F0B6C182F0B7C183F089EF1DF0BB
:1017EE00000E886F000E896F800E8A6F3F0E8B6F12
:1017FE0063BF06EF0CF004EF0CF069EF0CF05051E4
:10180E00511152115311D8A40FEF0CF011EF0CF02F
:10181E0056EF0CF0000E02011C6F210E1B6F80C0E4
:10182E003EF081C03FF082C040F083C041F080C0E6
:10183E003AF081C03BF082C03CF083C03DF08DECAD
:10184E0053F03AC042F03BC043F03CC044F03DC0C0
:10185E0045F080C03EF081C03FF082C040F083C0B2
:10186E0041F080C03AF081C03BF082C03CF083C0B2
:10187E003DF08DEC53F03AC046F03BC047F03CC013
:10188E0048F03DC049F009EC34F042C080F043C04E
:10189E0081F044C082F045C083F089EF1DF0500501
:1018AE00511152115311D8A45FEF0CF061EF0CF0EF
:1018BE0069EF0CF0000E886F000E896F800E8A6F34
:1018CE00BF0E8B6F93BF78EF0CF09005000E915901
:1018DE00000E92594D0E9359D8A078EF0CF07AEF76
:1018EE000CF0FFEF0EF0ABBF8CEF0CF0F80EA85D16
:1018FE00FF0EA9597F0EAA593F0EAB59D8B08AEFE9
:10190E000CF08CEF0CF0FFEF0CF07FBF91EF0CF0B2
:10191E0093EF0CF0C9EF0CF0600E256E420E266EA2
:10192E00A20E276E0D0E286E88C121F089C122F0FD
:10193E008AC123F08BC124F0F4EC31F021C0A4F164
:10194E0022C0A5F123C0A6F124C0A7F1A4C121F0A5
:10195E00A5C122F0A6C123F0A7C124F0600E256E0A
:10196E00420E266EA20E276E0D0E286EF4EC31F08E
:10197E0021C080F022C081F023C082F024C083F009
:10198E0089EF1DF0CA0E256EF20E266E490E276ED9
:10199E00710E286E88C121F089C122F08AC123F010
:1019AE008BC124F0F4EC31F021C0A4F122C0A5F1DA
:1019BE0023C0A6F124C0A7F1A4C121F0A5C122F035
:1019CE00A6C123F0A7C124F0CA0E256EF20E266E14
:1019DE00490E276E710E286EF4EC31F021C080F0A6
:1019EE0022C081F023C082F024C083F089EF1DF065
:1019FE00ABBF0FEF0DF0080EA85D000EA959800EBB
:101A0E00AA593F0EAB59D8A00FEF0DF011EF0DF004
:101A1E008CEF0DF07FBF20EF0DF07F517E117D1109
:101A2E0006E17C05D8B01EEF0DF020EF0DF056EF5D
:101A3E000DF0600E256E420E266EA20E276E0D0E56
:101A4E00286E88C121F089C122F08AC123F08BC192
:101A5E0024F0F4EC31F021C0A4F122C0A5F123C092
:101A6E00A6F124C0A7F1A4C121F0A5C122F0A6C100
:101A7E0023F0A7C124F0600E256E420E266EA20E34
:101A8E00276E0D0E286EF4EC31F021C080F022C0CE
:101A9E0081F023C082F024C083F089EF1DF0CA0EBE
:101AAE00256EF20E266E490E276E710E286E88C1B7
:101ABE0021F089C122F08AC123F08BC124F0F4EC0D
:101ACE0031F021C0A4F122C0A5F123C0A6F124C09B
:101ADE00A7F1A4C121F0A5C122F0A6C123F0A7C190
:101AEE0024F0CA0E256EF20E266E490E276E710E6A
:101AFE00286EF4EC31F021C080F022C081F023C0BA
:101B0E0082F024C083F089EF1DF070C111F071C115
:101B1E0012F072C113F073C114F0000E156E000EA8
:101B2E00166E800E176EBF0E186E00EC2BF011C0E5
:101B3E00B0F112C0B1F113C0B2F114C0B3F1000E86
:101B4E00256E000E266E800E276E3E0E286EB0C1DC
:101B5E0021F0B1C122F0B2C123F0B3C124F0F4ECF4
:101B6E0031F021C03EF022C03FF023C040F024C02F
:101B7E0041F0AB0E3A6EAA0E3B6EAA0E3C6E3E0EB6
:101B8E003D6E8DEC53F03AC0A4F13BC0A5F13CC0C4
:101B9E00A6F13DC0A7F1B0C125F0B1C126F0B2C18A
:101BAE0027F0B3C128F0B0C121F0B1C122F0B2C10B
:101BBE0023F0B3C124F0F4EC31F021C054F122C073
:101BCE0055F123C056F124C057F1B0C125F0B1C173
:101BDE0026F0B2C127F0B3C128F0A4C121F0A5C1EF
:101BEE0022F0A6C123F0A7C124F0F4EC31F021C0FD
:101BFE003EF022C03FF023C040F024C041F0000E62
:101C0E003A6E000E3B6E000E3C6E3F0E3D6E8DEC3E
:101C1E0053F03AC048F13BC049F13CC04AF13DC0D7
:101C2E004BF154C121F055C122F056C123F057C1DA
:101C3E0024F048C125F049C126F04AC127F04BC116
:101C4E0028F0F4EC31F021C044F122C045F123C05C
:101C5E0046F124C047F1B0C121F0B1C122F0B2C1AA
:101C6E0023F0B3C124F0000E256EAA0E266EB80E18
:101C7E00276E3F0E286EF4EC31F021C074F122C0B5
:101C8E0075F123C076F124C077F1700E256EA50E86
:101C9E00266EEC0E276E360E286EB0C121F0B1C145
:101CAE0022F0B2C123F0B3C124F0F4EC31F021C024
:101CBE003AF022C03BF023C03CF024C03DF03B0E76
:101CCE00256EAA0E266EB80E276E3F0E286E44C1E4
:101CDE0021F045C122F046C123F047C124F0F4ECB7
:101CEE0031F021C03EF022C03FF023C040F024C0AE
:101CFE0041F08DEC53F03AC078F13BC079F13CC025
:101D0E007AF13DC07BF174C111F075C112F076C14C
:101D1E0013F077C114F078C115F079C116F07AC1BD
:101D2E0017F07BC118F000EC2BF011C084F112C03B
:101D3E0085F113C086F114C087F184C1B8F185C155
:101D4E00B9F186C1BAF187C1BBF1B8C194F1B9C17D
:101D5E0095F1BAC196F1BBC197F1000E0101941530
:101D6E00B86FF00E9515B96FFF0E9615BA6FFF0E80
:101D7E009715BB6FB8C184F1B9C185F1BAC186F1AF
:101D8E00BBC187F174C13EF075C13FF076C140F022
:101D9E0077C141F084C13AF085C13BF086C13CF079
:101DAE0087C13DF08DEC53F03AC098F13BC099F1EC
:101DBE003CC09AF13DC09BF178C13AF079C13BF03D
:101DCE007AC13CF07BC13DF098C13EF099C13FF025
:101DDE009AC140F09BC141F08DEC53F03AC01CF11A
:101DEE003BC01DF13CC01EF13DC01FF17FEF16F050
:101DFE00000E806F000E816F000E826F000E836FDB
:101E0E00ABBF15EF0FF0AB5107E1800EAA5DD8B056
:101E1E0013EF0FF015EF0FF048EF0FF070C121F038
:101E2E0071C122F072C123F073C124F0000E256E31
:101E3E00000E266E800E276E4B0E286EF4EC31F0DF
:101E4E0021C070F122C071F123C072F124C073F170
:101E5E00E80E01018027FF0E8123FF0E8223FF0E65
:101E6E00832370C1B8F171C1B9F172C1BAF173C1F6
:101E7E00BBF1B8C1A8F1B9C1A9F1BAC1AAF1BBC1F0
:101E8E00ABF1170E0001886FA8C189F0A9C18AF0C5
:101E9E00AAC18BF0ABC18CF0886758EF0FF060EFE2
:101EAE000FF08C358C338B338A338933882F53EF75
:101EBE000FF0810E000189258D6FFF0E8A218E6F26
:101ECE00FF0E8B218F6FFF0E8C21906F8D510101B4
:101EDE00802700018E510101812300018F510101E4
:101EEE0082230001905101018323FF0EA815AC6FD0
:101EFE00FF0EA915AD6F7F0EAA15AE6F000EAB15B6
:101F0E00AF6F000EAC11A86F000EAD11A96F800E51
:101F1E00AE11AA6F3F0EAF11AB6FAFBFA6EF0FF0B2
:101F2E00AF510BE1720EAC5DC40EAD591C0EAE5925
:101F3E00D8B0A4EF0FF0A6EF0FF0B0EF0FF0000E39
:101F4E00A06F000EA16F000EA26F000EA36FE2EF46
:101F5E000FF0AFBFC2EF0FF0AF510BE1D70EAC5D7C
:101F6E00B30EAD595D0EAE59D8B0C0EF0FF0C2EF43
:101F7E000FF0CCEF0FF0010EA06F000EA16F000E50
:101F8E00A26F000EA36FE2EF0FF0000EA06F000E17
:101F9E00A16F000EA26F000EA36F010E8027000E20
:101FAE00812382238323000EA827000EA923800EEF
:101FBE00AA23FF0EAB23A8C1B8F1A9C1B9F1AAC1DA
:101FCE00BAF1ABC1BBF1B8C170F1B9C171F1BAC10F
:101FDE0072F1BBC173F170C13AF071C13BF072C1C5
:101FEE003CF073C13DF0A0C188F0A1C189F00001A1
:101FFE00D89088378937D89088378937790E8825D1
:10200E00F66E100E8921F76EF86A000EF82209009E
:10201E00F5CF3EF00900F5CF3FF00900F5CF40F0C7
:10202E000A00F5CF41F08DEC53F03AC074F13BC08D
:10203E0075F13CC076F13DC077F1000E426E000E98
:10204E00436E800E446E3F0E456E70C115F071C129
:10205E0016F072C117F073C118F0A0C188F0A1C1BB
:10206E0089F00001D89088378937D890883789371A
:10207E00790E8825F66E100E8921F76EF86A000E1D
:10208E00F8220900F5CF11F00900F5CF12F0090082
:10209E00F5CF13F00A00F5CF14F000EC2BF011C0C1
:1020AE0046F012C047F013C048F014C049F009ECD6
:1020BE0034F042C078F143C079F144C07AF145C0A2
:1020CE007BF174C121F075C122F076C123F077C186
:1020DE0024F078C125F079C126F07AC127F07BC1B2
:1020EE0028F0F4EC31F021C05CF122C05DF123C088
:1020FE005EF124C05FF15CC16CF15DC16DF15EC13A
:10210E006EF15FC16FF16CC1B8F16DC1B9F16EC105
:10211E00BAF16FC1BBF1B8C194F1B9C195F1BAC1B1
:10212E0096F1BBC197F1000E01019415B86FF00E38
:10213E009515B96FFF0E9615BA6FFF0E9715BB6FFB
:10214E00B8C16CF1B9C16DF1BAC16EF1BBC16FF11D
:10215E00A8C188F0A9C189F0AAC18AF0ABC18BF0E1
:10216E0000018B358B338A3389338833000E881503
:10217E008C6FF00E89158D6FFF0E8A158E6FFF0E08
:10218E008B158F6F000E8C110101946F000E0001E4
:10219E008D110101956F000E00018E110101966FD8
:1021AE00200E00018F110101976FA0C188F0A1C10F
:1021BE0089F0A2C18AF0A3C18BF0150ED890000150
:1021CE00883789378A378B37E82EE5EF10F0010113
:1021DE009451000188258C6F0101955100018921D0
:1021EE008D6F0101965100018A218E6F0101975169
:1021FE0000018B218F6F000E8C250101B86F000E30
:10220E0000018D210101B96F400E00018E210101E7
:10221E00BA6F000E00018F210101BB6FB8C168F1CA
:10222E00B9C169F1BAC16AF1BBC16BF1A0C188F045
:10223E00A1C189F00001D89088378937D8908837A6
:10224E008937790E8825F66E100E8921F76EF86A99
:10225E00000EF8220900F5CF3EF00900F5CF3FF051
:10226E000900F5CF40F00A00F5CF41F068C13AF011
:10227E0069C13BF06AC13CF06BC13DF08DEC53F08F
:10228E003AC098F13BC099F13CC09AF13DC09BF128
:10229E0070C13AF071C13BF072C13CF073C13DF0B8
:1022AE0098C13EF099C13FF09AC140F09BC141F0F8
:1022BE008DEC53F03AC034F13BC035F13CC036F1F1
:1022CE003DC037F168C125F069C126F06AC127F01B
:1022DE006BC128F06CC121F06DC122F06EC123F0EC
:1022EE006FC124F0F4EC31F021C03EF022C03FF07B
:1022FE0023C040F024C041F074C13AF075C13BF0E8
:10230E0076C13CF077C13DF08DEC53F03AC098F1B8
:10231E003BC099F13CC09AF13DC09BF134C125F010
:10232E0035C126F036C127F037C128F06CC121F037
:10233E006DC122F06EC123F06FC124F0F4EC31F0C8
:10234E0021C03EF022C03FF023C040F024C041F037
:10235E0098C13AF099C13BF09AC13CF09BC13DF057
:10236E008DEC53F03AC054F13BC055F13CC056F1E0
:10237E003DC057F154C121F055C122F056C123F092
:10238E0057C124F078C125F079C126F07AC127F023
:10239E007BC128F0F4EC31F021C030F122C031F1D4
:1023AE0023C032F124C033F15CC121F05DC122F0B3
:1023BE005EC123F05FC124F05CC125F05DC126F043
:1023CE005EC127F05FC128F0F4EC31F021C08CF132
:1023DE0022C08DF123C08EF124C08FF1550E156EE3
:1023EE00320E166E6C0E176E3E0E186E420E256E67
:1023FE00F10E266E530E276E3E0E286E8CC121F006
:10240E008DC122F08EC123F08FC124F0F4EC31F097
:10241E0021C011F022C012F023C013F024C014F01A
:10242E0000EC2BF011C0A4F112C0A5F113C0A6F15F
:10243E0014C0A7F1050E156EA30E166E8B0E176E39
:10244E003E0E186E8CC125F08DC126F08EC127F080
:10245E008FC128F0A4C121F0A5C122F0A6C123F09E
:10246E00A7C124F0F4EC31F021C011F022C012F01B
:10247E0023C013F024C014F000EC2BF011C054F163
:10248E0012C055F113C056F114C057F1AB0E156EB4
:10249E00AA0E166EAA0E176E3E0E186E8CC125F081
:1024AE008DC126F08EC127F08FC128F054C121F0C6
:1024BE0055C122F056C123F057C124F0F4EC31F08F
:1024CE0021C011F022C012F023C013F024C014F06A
:1024DE0000EC2BF011C048F112C049F113C04AF1C3
:1024EE0014C04BF1B70E156E6D0E166EDB0E176E19
:1024FE003E0E186E8CC125F08DC126F08EC127F0D0
:10250E008FC128F048C121F049C122F04AC123F001
:10251E004BC124F0F4EC31F021C011F022C012F0C6
:10252E0023C013F024C014F000EC2BF011C038F1CE
:10253E0012C039F113C03AF114C03BF19A0E156E68
:10254E00990E166E190E176E3F0E186E8CC125F071
:10255E008DC126F08EC127F08FC128F038C121F031
:10256E0039C122F03AC123F03BC124F0F4EC31F032
:10257E0021C011F022C012F023C013F024C014F0B9
:10258E0000EC2BF011C000F112C001F113C002F1EA
:10259E0014C003F18CC125F08DC126F08EC127F039
:1025AE008FC128F08CC121F08DC122F08EC123F095
:1025BE008FC124F0F4EC31F021C004F122C005F1FA
:1025CE0023C006F124C007F100C121F001C122F0A1
:1025DE0002C123F003C124F004C125F005C126F089
:1025EE0006C127F007C128F0F4EC31F021C04CF100
:1025FE0022C04DF123C04EF124C04FF130C125F061
:10260E0031C126F032C127F033C128F05CC115F07C
:10261E005DC116F05EC117F05FC118F06CC111F00C
:10262E006DC112F06EC113F06FC114F000EC2BF0FF
:10263E0011C021F012C022F013C023F014C024F0F8
:10264E00F4EC31F021C058F122C059F123C05AF1F7
:10265E0024C05BF14CC111F04DC112F04EC113F00C
:10266E004FC114F058C115F059C116F05AC117F0E8
:10267E005BC118F000EC2BF011C04CF112C04DF103
:10268E0013C04EF114C04FF16CC121F06DC122F098
:10269E006EC123F06FC124F06CC125F06DC126F020
:1026AE006EC127F06FC128F0F4EC31F021C08CF12F
:1026BE0022C08DF123C08EF124C08FF1000E156E55
:1026CE00000E166E400E176E400E186E8CC111F075
:1026DE008DC112F08EC113F08FC114F000EC2BF0EF
:1026EE0011C058F112C059F113C05AF114C05BF168
:1026FE0058C111F059C112F05AC113F05BC114F058
:10270E004CC115F04DC116F04EC117F04FC118F067
:10271E0000EC2BF011C068F112C069F113C06AF120
:10272E0014C06BF168C1B8F169C1B9F16AC1BAF1EF
:10273E006BC1BBF1B8C194F1B9C195F1BAC196F1B3
:10274E00BBC197F1000E01019415B86FF00E9515EF
:10275E00B96FFF0E9615BA6FFF0E9715BB6FB8C106
:10276E0068F1B9C169F1BAC16AF1BBC16BF1000E72
:10277E00156E000E166E400E176EC00E186E68C1E6
:10278E0011F069C112F06AC113F06BC114F000ECC4
:10279E002BF011C03CF112C03DF113C03EF114C03C
:1027AE003FF18CC13EF08DC13FF08EC140F08FC124
:1027BE0041F03CC13AF03DC13BF03EC13CF03FC15F
:1027CE003DF08DEC53F03AC040F13BC041F13CC0BE
:1027DE0042F13DC043F14CC13AF04DC13BF04EC108
:1027EE003CF04FC13DF040C13EF041C13FF042C10F
:1027FE0040F043C141F08DEC53F03AC034F13BC090
:10280E0035F13CC036F13DC037F16CC121F06DC1E0
:10281E0022F06EC123F06FC124F068C125F069C1AA
:10282E0026F06AC127F06BC128F0F4EC31F021C01C
:10283E0074F122C075F123C076F124C077F168C11E
:10284E0025F069C126F06AC127F06BC128F030C1AE
:10285E0021F031C122F032C123F033C124F0F4EC67
:10286E0031F021C011F022C012F023C013F024C0A9
:10287E0014F05CC125F05DC126F05EC127F05FC18A
:10288E0028F034C121F035C122F036C123F037C112
:10289E0024F0F4EC31F021C015F022C016F023C064
:1028AE0017F024C018F000EC2BF011C078F112C014
:1028BE0079F113C07AF114C07BF174C111F075C1B6
:1028CE0012F076C113F077C114F078C115F079C10A
:1028DE0016F07AC117F07BC118F000EC2BF011C086
:1028EE009CF112C09DF113C09EF114C09FF19CC1CA
:1028FE00B8F19DC1B9F19EC1BAF19FC1BBF1B8C18A
:10290E0094F1B9C195F1BAC196F1BBC197F1000E20
:10291E0001019415B86FF00E9515B96FFF0E96154F
:10292E00BA6FFF0E9715BB6FB8C19CF1B9C19DF17F
:10293E00BAC19EF1BBC19FF174C13EF075C13FF0AB
:10294E0076C140F077C141F09CC13AF09DC13BF099
:10295E009EC13CF09FC13DF08DEC53F03AC098F112
:10296E003BC099F13CC09AF13DC09BF178C13AF061
:10297E0079C13BF07AC13CF07BC13DF098C13EF08D
:10298E0099C13FF09AC140F09BC141F08DEC53F0DC
:10299E003AC064F13BC065F13CC066F13DC067F1E1
:1029AE009CC121F09DC122F09EC123F09FC124F055
:1029BE00000E256E400E266E760E276E3F0E286E8A
:1029CE00F4EC31F021C020F122C021F123C022F11C
:1029DE0024C023F14F0E256E380E266E760E276E0E
:1029EE003F0E286E64C121F065C122F066C123F04E
:1029FE0067C124F0F4EC31F021C015F022C016F0BE
:102A0E0023C017F024C018F0C60E256E230E266EB6
:102A1E00F60E276EB80E286E9CC121F09DC122F0D5
:102A2E009EC123F09FC124F0F4EC31F021C011F0CF
:102A3E0022C012F023C013F024C014F000EC2BF0CF
:102A4E0011C058F112C059F113C05AF114C05BF104
:102A5E0058C111F059C112F05AC113F05BC114F0F4
:102A6E00A0C188F0A1C189F00001D89088378937BC
:102A7E00D89088378937110E8825F66E100E892169
:102A8E00F76EF86A000EF8220900F5CF15F009006E
:102A9E00F5CF16F00900F5CF17F00A00F5CF18F0B4
:102AAE0000EC2BF011C024F112C025F113C026F159
:102ABE0014C027F180C103F081C104F082C105F07A
:102ACE0083C106F0010E01EC40F003C0B0F104C06A
:102ADE00B1F105C0B2F106C0B3F124C115F025C1A4
:102AEE0016F026C117F027C118F020C111F021C130
:102AFE0012F022C113F023C114F000EC2BF011C020
:102B0E0058F112C059F113C05AF114C05BF1A0C1B3
:102B1E0088F0A1C189F00001D89088378937D89004
:102B2E0088378937190E8825F66E100E8921F76EB3
:102B3E00F86A000EF8220900F5CF15F00900F5CF5E
:102B4E0016F00900F5CF17F00A00F5CF18F058C1AE
:102B5E0011F059C112F05AC113F05BC114F000EC20
:102B6E002BF011C008F112C009F113C00AF114C004
:102B7E000BF108C111F009C112F00AC113F00BC11B
:102B8E0014F0B0C115F0B1C116F0B2C117F0B3C157
:102B9E0018F000EC2BF011C084F112C085F113C0B7
:102BAE0086F114C087F184C1B8F185C1B9F186C12F
:102BBE00BAF187C1BBF1B8C194F1B9C195F1BAC1EF
:102BCE0096F1BBC197F1000E01019415B86FF00E8E
:102BDE009515B96FFF0E9615BA6FFF0E9715BB6F51
:102BEE00B8C184F1B9C185F1BAC186F1BBC187F113
:102BFE00B0C13EF0B1C13FF0B2C140F0B3C141F03F
:102C0E0084C13AF085C13BF086C13CF087C13DF0EE
:102C1E008DEC53F03AC098F13BC099F13CC09AF15B
:102C2E003DC09BF1A0C188F0A1C189F00001D890F0
:102C3E0088378937D89088378937190E8825F66EE8
:102C4E00100E8921F76EF86A000EF8220900F5CFF2
:102C5E003EF00900F5CF3FF00900F5CF40F00A0035
:102C6E00F5CF41F098C13AF099C13BF09AC13CF0D2
:102C7E009BC13DF08DEC53F03AC040F13BC041F1A9
:102C8E003CC042F13DC043F120C13EF021C13FF0B6
:102C9E0022C140F023C141F040C13AF041C13BF0A6
:102CAE0042C13CF043C13DF08DEC53F03AC00CF103
:102CBE003BC00DF13CC00EF13DC00FF124C13AF006
:102CCE0025C13BF026C13CF027C13DF00CC13EF0C2
:102CDE000DC13FF00EC140F00FC141F08DEC53F02D
:102CEE003AC01CF13BC01DF13CC01EF13DC01FF1AE
:102CFE0084C0B8F185C0B9F186C0BAF187C0BBF106
:102D0E00B8C194F1B9C195F1BAC196F1BBC197F1B1
:102D1E00000E01019415B86FF00E9515B96FFF0EE8
:102D2E009615BA6FFF0E9715BB6FB8C128F1B9C1D2
:102D3E0029F1BAC12AF1BBC12BF184C125F085C19D
:102D4E0026F086C127F087C128F028C13EF029C1A0
:102D5E003FF02AC140F02BC141F084C03AF085C04B
:102D6E003BF086C03CF087C03DF08DEC53F03AC08E
:102D7E0021F03BC022F03CC023F03DC024F0F4EC27
:102D8E0031F021C010F122C011F123C012F124C084
:102D9E0013F110C111F011C112F012C113F013C1D1
:102DAE0014F01CC125F01DC126F01EC127F01FC155
:102DBE0028F084C021F085C022F086C023F087C0A1
:102DCE0024F0F4EC31F021C015F022C016F023C02F
:102DDE0017F024C018F000EC2BF011C064F112C0F3
:102DEE0065F113C066F114C067F128C121F029C145
:102DFE0022F02AC123F02BC124F084C125F085C115
:102E0E0026F086C127F087C128F0F4EC31F021C0FE
:102E1E009CF122C09DF123C09EF124C09FF164C19C
:102E2E0011F065C112F066C113F067C114F09CC1B8
:102E3E0015F09DC116F09EC117F09FC118F000EC61
:102E4E002BF011C0B4F112C0B5F113C0B6F114C01D
:102E5E00B7F1B4C1B8F1B5C1B9F1B6C1BAF1B7C1E4
:102E6E00BBF1B8C1ACF1B9C1ADF1BAC1AEF1BBC1E4
:102E7E00AFF10101AFBF50EF17F0AC05000EAD5929
:102E8E00000EAE59430EAF59D8A050EF17F052EFC7
:102E9E0017F088EF17F0CA0E256EF20E266E490E49
:102EAE00276E710E286E88C121F089C122F08AC169
:102EBE0023F08BC124F0F4EC31F021C0A4F122C038
:102ECE00A5F123C0A6F124C0A7F1A4C121F0A5C18C
:102EDE0022F0A6C123F0A7C124F0CA0E256EF20E71
:102EEE00266E490E276E710E286EF4EC31F021C05D
:102EFE0080F022C081F023C082F024C083F089EFDD
:102F0E001DF0430EAF19AC11AD11AE11D8A492EF56
:102F1E0017F094EF17F007EF18F09CC13EF09DC12B
:102F2E003FF09EC140F09FC141F0B4C13AF0B5C12F
:102F3E003BF0B6C13CF0B7C13DF08DEC53F03AC05A
:102F4E0042F03BC043F03CC044F03DC045F03C0E67
:102F5E00156EAA0E166E380E176E330E186E64C1ED
:102F6E0011F065C112F066C113F067C114F000ECE8
:102F7E002BF011C046F012C047F013C048F014C039
:102F8E0049F0E3EC48F0D8B0CFEF17F0D1EF17F0DF
:102F9E00D1EF18F0CA0E256EF20E266E490E276E70
:102FAE00710E286E88C121F089C122F08AC123F0EA
:102FBE008BC124F0F4EC31F021C0A4F122C0A5F1B4
:102FCE0023C0A6F124C0A7F1A4C121F0A5C122F00F
:102FDE00A6C123F0A7C124F0CA0E256EF20E266EEE
:102FEE00490E276E710E286EF4EC31F021C080F080
:102FFE0022C081F023C082F024C083F089EF1DF03F
:10300E00FF0EAC150001886FFF0E0101AD1500011A
:10301E00896FFF0E0101AE1500018A6F7F0E01014F
:10302E00AF1500018B6F8BBF29EF18F08805000ECE
:10303E008959160E8A59430E8B59D8A029EF18F0CC
:10304E002BEF18F061EF18F0600E256E420E266E13
:10305E00A20E276E0D0E286E88C121F089C122F0B6
:10306E008AC123F08BC124F0F4EC31F021C0A4F11D
:10307E0022C0A5F123C0A6F124C0A7F1A4C121F05E
:10308E00A5C122F0A6C123F0A7C124F0600E256EC3
:10309E00420E266EA20E276E0D0E286EF4EC31F047
:1030AE0021C080F022C081F023C082F024C083F0C2
:1030BE0089EF1DF0160E0101AE1909E1C30EAF190D
:1030CE00AC11AD11D8A46EEF18F070EF18F0D1EF6F
:1030DE0018F09CC13EF09DC13FF09EC140F09FC1D3
:1030EE0041F0B4C13AF0B5C13BF0B6C13CF0B7C146
:1030FE003DF08DEC53F03AC042F03BC043F03CC083
:10310E0044F03DC045F064C146F065C147F066C16C
:10311E0048F067C149F0E3EC48F0D8A099EF18F0F9
:10312E009BEF18F0D1EF18F0600E256E420E266E52
:10313E00A20E276E0D0E286E88C121F089C122F0D5
:10314E008AC123F08BC124F0F4EC31F021C0A4F13C
:10315E0022C0A5F123C0A6F124C0A7F1A4C121F07D
:10316E00A5C122F0A6C123F0A7C124F0600E256EE2
:10317E00420E266EA20E276E0D0E286EF4EC31F066
:10318E0021C080F022C081F023C082F024C083F0E1
:10319E0089EF1DF0FF0E0101AC152C6FFF0EAD1562
:1031AE002D6FFF0EAE152E6F7F0EAF152F6F170EF4
:1031BE000001886F2CC189F02DC18AF02EC18BF0D1
:1031CE002FC18CF08867EEEF18F0F6EF18F08C3503
:1031DE008C338B338A338933882FE9EF18F0810EC5
:1031EE00000189250101A06FFF0E00018A21010156
:1031FE00A16FFF0E00018B210101A26FFF0E0001D6
:10320E008C210101A36F000E806F000E816F000EE6
:10321E00826F000E836F2FBF21EF19F02C05000E69
:10322E002D59000E2E593F0E2F59D8A021EF19F00F
:10323E0023EF19F027EF1AF0A0C188F0010E00015C
:10324E008827000E896F000E8A6F800E8B6F000E1E
:10325E008C6F886735EF19F03DEF19F08C358C3394
:10326E008B338A338933882F30EF19F00101AC513B
:10327E00000189250101806FAD5100018A210101F4
:10328E00816FAE5100018B210101826FAF510001A0
:10329E008C210101836F810E0001886FFF0E896FF3
:1032AE00FF0E8A6FFF0E8B6F170E8C6F80C18DF025
:1032BE0081C18EF082C18FF083C190F08C676AEF6E
:1032CE0019F072EF19F0903590338F338E338D33B2
:1032DE008C2F65EF19F000018D5188250101A06F2B
:1032EE00000E000189210101A16F000E00018A214B
:1032FE000101A26F000E00018B210101A36FA0C17D
:10330E0088F0FF0E0001896FFF0E8A6F7F0E8B6FA4
:10331E00000E8C6F886796EF19F09EEF19F08C35C2
:10332E008C338B338A338933882F91EF19F0000158
:10333E00891D8D6F8A1D8E6F8B1D8F6F8C1D906FEB
:10334E000101805100018D150101B86F81510001FD
:10335E008E150101B96F825100018F150101BA6FEF
:10336E008351000190150101BB6FB8C1B0F1B9C115
:10337E00B1F1BAC1B2F1BBC1B3F1A051170800014E
:10338E00886FFF0E010180150001896FFF0E01018C
:10339E00811500018A6F7F0E0101821500018B6F6E
:1033AE00000E0101831500018C6F000E89118D6FC7
:1033BE00000E8A118E6F800E8B118F6F000E8C1186
:1033CE00906F8867EDEF19F0F5EF19F090359033A7
:1033DE008F338E338D33882FE8EF19F08DC080F147
:1033EE008EC081F18FC082F190C083F10101AFBF19
:1033FE0005EF1AF003EF1AF00DEF1AF0831F821F7C
:10340E00811F806D000E8123822383239CC13AF09D
:10341E009DC13BF09EC13CF09FC13DF0B0C13EF05E
:10342E00B1C13FF0B2C140F0B3C141F08DEC53F0E9
:10343E003AC09CF13BC09DF13CC09EF13DC09FF156
:10344E0064C111F065C112F066C113F067C114F0CA
:10345E009CC115F09DC116F09EC117F09FC118F0CA
:10346E0000EC2BF011C0B0F112C0B1F113C0B2F1EB
:10347E0014C0B3F1B0C1B8F1B1C1B9F1B2C1BAF172
:10348E00B3C1BBF1B8C194F1B9C195F1BAC196F10E
:10349E00BBC197F1000E01019415B86F800E951502
:1034AE00B96FFF0E9615BA6FFF0E9715BB6FB8C1A9
:1034BE00B0F1B9C1B1F1BAC1B2F1BBC1B3F1B0C192
:1034CE0021F0B1C122F0B2C123F0B3C124F0000E3D
:1034DE00256E720E266E310E276E3F0E286EF4ECA0
:1034EE0031F021C074F122C075F123C076F124C0F1
:1034FE0077F19CC13EF09DC13FF09EC140F09FC14F
:10350E0041F0B0C13AF0B1C13BF0B2C13CF0B3C131
:10351E003DF08DEC53F03AC098F13BC099F13CC0B0
:10352E009AF13DC09BF1180E256E720E266E310E6D
:10353E00276E3F0E286E98C13EF099C13FF09AC19A
:10354E0040F09BC141F064C13AF065C13BF066C1E9
:10355E003CF067C13DF08DEC53F03AC021F03BC01A
:10356E0022F03CC023F03DC024F0F4EC31F021C039
:10357E0014F122C015F123C016F124C017F114C1A5
:10358E0011F015C112F016C113F017C114F08C0E04
:10359E00256EBE0E266EBF0E276E350E286EB0C17E
:1035AE0021F0B1C122F0B2C123F0B3C124F0F4EC8A
:1035BE0031F021C015F022C016F023C017F024C040
:1035CE0018F000EC2BF011C078F112C079F113C095
:1035DE007AF114C07BF174C111F075C112F076C18D
:1035EE0013F077C114F078C115F079C116F07AC1D5
:1035FE0017F07BC118F000EC2BF011C0B4F112C023
:10360E00B5F113C0B6F114C0B7F174C13EF075C177
:10361E003FF076C140F077C141F0B4C13AF0B5C188
:10362E003BF0B6C13CF0B7C13DF08DEC53F03AC063
:10363E0098F13BC099F13CC09AF13DC09BF178C125
:10364E003AF079C13BF07AC13CF07BC13DF098C1B4
:10365E003EF099C13FF09AC140F09BC141F08DEC14
:10366E0053F03AC044F13BC045F13CC046F13DC079
:10367E0047F1B4C121F0B5C122F0B6C123F0B7C1F4
:10368E0024F0B4C125F0B5C126F0B6C127F0B7C1FC
:10369E0028F0F4EC31F021C0B0F122C0B1F123C01A
:1036AE00B2F124C0B3F10E0E156EEA0E166EDD0EDB
:1036BE00176EB50E186E4C0E256EBB0E266E310EA5
:1036CE00276E330E286EB0C121F0B1C122F0B2C107
:1036DE0023F0B3C124F0F4EC31F021C011F022C07C
:1036EE0012F023C013F024C014F000EC2BF011C024
:1036FE00A4F112C0A5F113C0A6F114C0A7F1550E86
:10370E00156EB30E166E8A0E176E380E186EB0C189
:10371E0025F0B1C126F0B2C127F0B3C128F0A4C183
:10372E0021F0A5C122F0A6C123F0A7C124F0F4EC2C
:10373E0031F021C011F022C012F023C013F024C0CA
:10374E0014F000EC2BF011C054F112C055F113C05F
:10375E0056F114C057F1610E156E0B0E166E360E25
:10376E00176EBB0E186EB0C125F0B1C126F0B2C1F6
:10377E0027F0B3C128F054C121F055C122F056C133
:10378E0023F057C124F0F4EC31F021C011F022C027
:10379E0012F023C013F024C014F000EC2BF011C073
:1037AE0048F112C049F113C04AF114C04BF1AB0EEF
:1037BE00156EAA0E166E2A0E176E3E0E186EB0C13C
:1037CE0025F0B1C126F0B2C127F0B3C128F048C12F
:1037DE0021F049C122F04AC123F04BC124F0F4EC90
:1037EE0031F021C011F022C012F023C013F024C01A
:1037FE0014F000EC2BF011C038F112C039F113C0E7
:10380E003AF114C03BF1B4C13AF0B5C13BF0B6C1C8
:10381E003CF0B7C13DF0B0C125F0B1C126F0B2C148
:10382E0027F0B3C128F038C121F039C122F03AC1D6
:10383E0023F03BC124F0F4EC31F021C03EF022C065
:10384E003FF023C040F024C041F08DEC53F03AC05D
:10385E0084F13BC085F13CC086F13DC087F1000E7E
:10386E00156E000E166E000E176EC00E186E84C109
:10387E0011F085C112F086C113F087C114F000EC6F
:10388E002BF011C046F012C047F013C048F014C020
:10389E0049F084C125F085C126F086C127F087C185
:1038AE0028F0B4C121F0B5C122F0B6C123F0B7C1E2
:1038BE0024F0F4EC31F021C042F022C043F023C0DA
:1038CE0044F024C045F009EC34F042C03CF143C052
:1038DE003DF144C03EF145C03FF144C115F045C134
:1038EE0016F046C117F047C118F044C125F045C186
:1038FE0026F046C127F047C128F0B4C121F0B5C16A
:10390E0022F0B6C123F0B7C124F0F4EC31F021C09F
:10391E0011F022C012F023C013F024C014F000ECFA
:10392E002BF011C018F112C019F113C01AF114C006
:10393E001BF13CC13AF03DC13BF03EC13CF03FC1F2
:10394E003DF018C13EF019C13FF01AC140F01BC145
:10395E0041F08DEC53F03AC04CF13BC04DF13CC000
:10396E004EF13DC04FF1B4C13EF0B5C13FF0B6C10E
:10397E0040F0B7C141F04CC13AF04DC13BF04EC1E1
:10398E003CF04FC13DF08DEC53F03AC098F13BC086
:10399E0099F13CC09AF13DC09BF1000E3A6E000EBB
:1039AE003B6E800E3C6E3F0E3D6E98C13EF099C14F
:1039BE003FF09AC140F09BC141F08DEC53F03AC0FC
:1039CE00B4F13BC0B5F13CC0B6F13DC0B7F1B4C1E6
:1039DE00B8F1B5C1B9F1B6C1BAF1B7C1BBF1B8C151
:1039EE00ACF1B9C1ADF1BAC1AEF1BBC1AFF180C19D
:1039FE0088F081C189F082C18AF083C18BF0170EE5
:103A0E00D8900001883789378A378B37E82E07EF31
:103A1E001DF088510101AC27000189510101AD2330
:103A2E0000018A510101AE2300018B510101AF2328
:103A3E00170E0001886FACC189F0ADC18AF0AEC11E
:103A4E008BF0AFC18CF088672FEF1DF037EF1DF0B4
:103A5E008C358C338B338A338933882F2AEF1DF0C4
:103A6E0000018CBF47EF1DF08C518B118A1106E1BE
:103A7E008905D8B045EF1DF047EF1DF05FEF1DF043
:103A8E00B4C13AF0B5C13BF0B6C13CF0B7C13DF0A0
:103A9E0080C13EF081C13FF0F7EC3BF03AC0B4F18B
:103AAE003BC0B5F13CC0B6F13DC0B7F16FEF1DF0B4
:103ABE00ACC1B8F1ADC1B9F1AEC1BAF1AFC1BBF194
:103ACE00B8C1B4F1B9C1B5F1BAC1B6F1BBC1B7F164
:103ADE0088C121F089C122F08AC123F08BC124F064
:103AEE00B4C125F0B5C126F0B6C127F0B7C128F094
:103AFE00F4EC31F021C080F022C081F023C082F0BE
:103B0E0024C083F01200000182518311D8B492EFC9
:103B1E001DF094EF1DF0A0EF1DF082C0D9FF83C001
:103B2E00DAFF80C0DEFF81C0DDFFA0EF1DF0804B0D
:103B3E00812B80C0D9FF81C0DAFF200EDE18D8B4E9
:103B4E00ABEF1DF0AEEF1DF0010EAFEF1DF0000E4E
:103B5E008E6F8F6B8E518F11D8A4B8EF1DF0BAEF08
:103B6E001DF09EEF1DF080C0D9FF81C0DAFFDF503F
:103B7E00846F84518E6F8F6BF70E8E25856FFF0EBF
:103B8E008F21866F865109E1050E855DD8A0D2EF93
:103B9E001DF0D4EF1DF09EEF1DF0000E8B6F2D0E5D
:103BAE008E198F11D8A4DEEF1DF0E0EF1DF0E6EFB9
:103BBE001DF0010E8B6F804B812BF2EF1DF02B0E43
:103BCE008E198F11D8A4EEEF1DF0F0EF1DF0F2EF6D
:103BDE001DF0E2EF1DF0000E946FF7EF1DF0942B29
:103BEE0094518025D96E000E8121DA6EDF50D8B443
:103BFE0003EF1EF005EF1EF03BEF1EF094518025F3
:103C0E00D96E000E8121DA6EDF50846FAE0E9425D0
:103C1E00F66EF76A100EF722F86A000EF822080008
:103C2E00F5508419D8B41EEF1EF020EF1EF0F6EFFB
:103C3E001DF094518025D96E000E8121DA6EDF5071
:103C4E00846FA50E9425F66EF76A100EF722F86AA9
:103C5E00000EF8220800F5508419D8B439EF1EF082
:103C6E003BEF1EF0F6EF1DF0020E946541EF1EF0D5
:103C7E0043EF1EF06FEF1EF0000E906F000E916F6F
:103C8E00800E926F7F0E936F82518311D8B452EFD4
:103C9E001EF054EF1EF0AAEF25F0080E9419D8B4BA
:103CAE005BEF1EF05DEF1EF05FEF1EF0030E946FE4
:103CBE0094518025846F000E8121856F82C0D9FFBB
:103CCE0083C0DAFF84C0DEFF85C0DDFFAAEF25F0DA
:103CDE00000E946F74EF1EF0942B94518025D96EC4
:103CEE00000E8121DA6EDF50D8B480EF1EF082EF25
:103CFE001EF0B8EF1EF094518025D96E000E812172
:103D0E00DA6EDF50846FC50E9425F66EF76A100ECC
:103D1E00F722F86A000EF8220800F5508419D8B47C
:103D2E009BEF1EF09DEF1EF073EF1EF09451802559
:103D3E00D96E000E8121DA6EDF50846FBD0E942590
:103D4E00F66EF76A100EF722F86A000EF8220800D7
:103D5E00F5508419D8B4B6EF1EF0B8EF1EF073EF1D
:103D6E001EF0030E9419D8A4BFEF1EF0C1EF1EF083
:103D7E0030EF1FF0C00E036E100E046E13EC56F0F3
:103D8E0003C090F004C091F005C092F006C093F00D
:103D9E00000182518311D8B4D7EF1EF0D9EF1EF077
:103DAE00AAEF25F094518027000E812380C0D9FF01
:103DBE0081C0DAFF280EDE18D8A4E8EF1EF0EAEF75
:103DCE001EF026EF1FF0000E946FEFEF1EF0942BF7
:103DDE0094518025D96E000E8121DA6EDF50D8B451
:103DEE00FBEF1EF0FDEF1EF00CEF1FF0945180253F
:103DFE00D96E000E8121DA6E290EDE18D8A40AEFD4
:103E0E001FF00CEF1FF0EEEF1EF094518025D96ECF
:103E1E00000E8121DA6E290EDE18D8A419EF1FF0DC
:103E2E001BEF1FF026EF1FF09451846F856B010E70
:103E3E008427000E8523845180278551812382C0DB
:103E4E00D9FF83C0DAFF80C0DEFF81C0DDFFAAEF9D
:103E5E0025F0000E8F6F000E8E6F000E906F000E0D
:103E6E00916F000E926F000E936F000E8D6F000E0D
:103E7E008C6F000E946F45EF1FF0942B945180259C
:103E8E00D96E000E8121DA6E300EDE18D8B452EFE4
:103E9E001FF054EF1FF044EF1FF09451D8B45AEFB7
:103EAE001FF05CEF1FF0C7EF22F094518025D96E02
:103EBE00000E8121DA6E780EDE18D8B469EF1FF08D
:103ECE006BEF1FF07AEF1FF094518025D96E000E24
:103EDE008121DA6E580EDE18D8A478EF1FF07AEF33
:103EEE001FF0C7EF22F09451846F856B010E84276B
:103EFE00000E85238451802785518123000E946FF7
:103F0E008AEF1FF0942B94518025D96E000E8121DB
:103F1E00DA6E300EDE18D8B497EF1FF099EF1FF05F
:103F2E0089EF1FF0000E946F94518025D96E000E0C
:103F3E008121DA6E700EDE18D8B4A8EF1FF0AAEF4A
:103F4E001FF01CEF21F094518025D96E000E8121B7
:103F5E00DA6E500EDE18D8A4B7EF1FF0B9EF1FF0CF
:103F6E00BBEF1FF01CEF21F094518025D96E000E8F
:103F7E008121DA6E2E0EDE18D8A4C8EF1FF0CAEF1C
:103F8E001FF0CEEF1FF08B89942B1CEF21F0945174
:103F9E008025D96E000E8121DA6EDF50846F845138
:103FAE00076E086AF1EC51F007500810D8B4E2EF32
:103FBE001FF0E4EF1FF051EF20F0000E00018A6FAA
:103FCE0094518025D96E000E8121DA6EDF50846FF8
:103FDE00D00E8425856F866BFF0E8623865107E1F2
:103FEE000A0E855DD8B0FEEF1FF000EF20F00BEF4C
:103FFE0020F094518025D96E000E8121DA6EDF50AB
:10400E00D00F8A6F1CEF20F094518025D96E000ED0
:10401E008121DA6EDF50846F8451076E086A9EEC40
:10402E0054F00750C90F00018A6F8FBF2AEF20F09E
:10403E008F5107E1080E8E5DD8B028EF20F02AEFE1
:10404E0020F049EF20F08E510708846FD890843706
:10405E00D89084378AC085F0866B876B886B842BEB
:10406E003EEF20F0D8908537863787378837842FF4
:10407E0039EF20F085519013865191138751921389
:10408E00885193138E4B8F2B040E8C27000E8D238D
:10409E005CEF20F0000E0001806F000E816F000EAD
:1040AE00826F000E836FCCEF25F0942B9BEF1FF0E9
:1040BE0094518025D96E000E8121DA6E700EDE18B5
:1040CE00D8B46CEF20F06EEF20F023EF21F0945176
:1040DE008025D96E000E8121DA6E500EDE18D8A41E
:1040EE007BEF20F07DEF20F07FEF20F023EF21F02B
:1040FE0094518025D96E000E8121DA6E300EDE18B5
:10410E00D8A48CEF20F08EEF20F09DEF20F08E5192
:10411E008F11D8A495EF20F097EF20F09DEF20F0AF
:10412E00FC0E8C27FF0E8D231AEF21F09451802563
:10413E00D96E000E8121DA6EDF50846F8451076EC6
:10414E00086AF1EC51F007500810D8B4B1EF20F026
:10415E00B3EF20F01AEF21F0000E00018A6F945198
:10416E008025D96E000E8121DA6EDF50846FD00E5D
:10417E008425856F866BFF0E8623865107E10A0E16
:10418E00855DD8B0CDEF20F0CFEF20F0DAEF20F044
:10419E0094518025D96E000E8121DA6EDF50D00F3A
:1041AE008A6FEBEF20F094518025D96E000E81219D
:1041BE00DA6EDF50846F8451076E086A9EEC54F0FD
:1041CE000750C90F00018A6F8FBFF9EF20F08F5192
:1041DE0007E1080E8E5DD8B0F7EF20F0F9EF20F072
:1041EE0018EF21F08E510708846FD8908437D8903D
:1041FE0084378AC085F0866B876B886B842B0DEFB6
:10420E0021F0D8908537863787378837842F08EF87
:10421E0021F0855190138651911387519213885135
:10422E0093138E4B8F2B0001942B8BB921EF21F022
:10423E0023EF21F05FEF20F094518025D96E000E10
:10424E008121DA6E700EDE18D8B430EF21F032EF25
:10425E0021F04BEF21F094518025D96E000E812173
:10426E00DA6E500EDE18D8B43FEF21F041EF21F098
:10427E004BEF21F0000E806F000E816F000E826FEB
:10428E00000E836FCCEF25F0942B94518025D96EC0
:10429E00000E8121DA6E2B0EDE18D8A459EF21F014
:1042AE005BEF21F05EEF21F0942B6FEF21F0945134
:1042BE008025D96E000E8121DA6E2D0EDE18D8A45F
:1042CE006BEF21F06DEF21F06FEF21F08B87942BC8
:1042DE0094518027000E8123000E946F78EF21F009
:1042EE00942B94518025D96E000E8121DA6E300EFA
:1042FE00DE18D8B485EF21F087EF21F077EF21F0AB
:10430E00000E8F6F000E8E6FB7EF21F09451D8B460
:10431E0093EF21F095EF21F0A3EF21F08EC003F083
:10432E008FC004F0000E066E0A0E056EC7EC55F037
:10433E0003C08EF004C08FF0000194518025D96E19
:10434E00000E8121DA6EDF50846FD00E8425856FCA
:10435E00866BFF0E862385518E2786518F23942BD5
:10436E0094518025D96E000E8121DA6EDF50846F54
:10437E00D00E8425856F866BFF0E8623865109E14C
:10438E000A0E855DD8A0CEEF21F0D0EF21F08DEF93
:10439E0021F09451D8A4D6EF21F0D8EF21F0E2EF1E
:1043AE0021F0000E806F000E816F000E826F000EE6
:1043BE00836FCCEF25F08BA7E7EF21F0E9EF21F02B
:1043CE00EDEF21F08E6D8F1FD8B08F2B8E518C2775
:1043DE008F518D2382518311D8B4F8EF21F0FAEF6B
:1043EE0021F008EF22F094518025846F000E812178
:1043FE00856F82C0D9FF83C0DAFF84C0DEFF85C01F
:10440E00DDFF9051911192119311D8A411EF22F06A
:10441E0013EF22F01DEF22F0000E806F000E816F61
:10442E00000E826F000E836FCCEF25F0FF0E9015FD
:10443E00846F000E9115856F000E9215866F000E1B
:10444E009315876F87518611851109E1810E845D61
:10445E00D8A034EF22F036EF22F048EF22F0000E13
:10446E009027010E9123000E9223000E932348EF06
:10447E0022F0D89090379137923793378C07D8A087
:10448E008D0793AF4DEF22F04FEF22F040EF22F069
:10449E008DAF5BEF22F0830E8C5DFF0E8D59D8B081
:1044AE005BEF22F05DEF22F069EF22F0FF0E8D6FD1
:1044BE00810E8C6F000E906F000E916F000E926F3A
:1044CE00000E936F810E8C1908E18D29D8B472EF0E
:1044DE0022F074EF22F07CEF22F0D89090379137D3
:1044EE00923793378C07D8A08D078DBF88EF22F0B7
:1044FE008D5109E1800E8C5DD8A088EF22F08AEFF5
:10450E0022F096EF22F0000E906F000E916F000ECB
:10451E00926F000E936F000E8D6F800E8C6F090ED2
:10452E00846FD8909333923391339033842F98EFD6
:10453E0022F0FF0E9017FF0E91177F0E9217000EAE
:10454E0093177F0E8C25846F000E8D21856FFF0EC5
:10455E008415866F876B886B896B170ED89086379C
:10456E00873788378937E82EB5EF22F086519013BA
:10457E00875191138851921389519313AAEF25F005
:10458E008BB9CCEF22F0CEEF22F0E0EF22F080C01C
:10459E00D9FF81C0DAFF2E0EDE18D8A4D9EF22F093
:1045AE00DBEF22F0E0EF22F08B89804B812BC7EFFF
:1045BE0022F080C0D9FF81C0DAFFDF50846FD00EA9
:1045CE008425856F866BFF0E8623865109E10A0EC0
:1045DE00855DD8A0F5EF22F0F7EF22F0F9EF22F08B
:1045EE0048EF23F08B83090E8E198F11D8B402EF8A
:1045FE0023F004EF23F03BEF23F08BA909EF23F018
:10460E000BEF23F00EEF23F08C07D8A08D078E4B07
:10461E008F2B90C003F091C004F092C005F093C0B0
:10462E0006F00A0E076E000E086E000E096E000EE2
:10463E000A6E58EC51F003C090F004C091F005C022
:10464E0092F006C093F080C0D9FF81C0DAFFDF5030
:10465E000001846FD00E842784519027000E912381
:10466E009223932344EF23F08BB940EF23F042EFD4
:10467E0023F044EF23F08C4B8D2B804B812BC7EF17
:10468E0022F0000E8F6F000E8E6F80C0D9FF81C09A
:10469E00DAFF650EDE18D8B457EF23F059EF23F08A
:1046AE0066EF23F080C0D9FF81C0DAFF450EDE1819
:1046BE00D8A464EF23F066EF23F027EF24F0804BAD
:1046CE00812B80C0D9FF81C0DAFF2D0EDE18D8A451
:1046DE0073EF23F075EF23F07AEF23F08B87804B87
:1046EE00812B89EF23F080C0D9FF81C0DAFF2B0E1A
:1046FE00DE18D8A485EF23F087EF23F089EF23F09F
:10470E00804B812B80C0D9FF81C0DAFF300EDE18BE
:10471E00D8B494EF23F096EF23F087EF23F080C008
:10472E00D9FF81C0DAFFDF50846FD00E8425856FEC
:10473E00866BFF0E8623865107E10A0E855DD8B083
:10474E00ABEF23F0ADEF23F01CEF24F080C0D9FFC8
:10475E0081C0DAFFDF50846FD00E842784518E6FB4
:10476E008F6B804B812B80C0D9FF81C0DAFFDF5069
:10477E00846FD00E8425856F866BFF0E862386513F
:10478E0007E10A0E855DD8B0CFEF23F0D1EF23F00D
:10479E001CEF24F080C0D9FF81C0DAFFDF50846F98
:1047AE00D00E84278EC003F08FC004F0000E066E6C
:1047BE000A0E056EC7EC55F00001845103248E6F6E
:1047CE00000E04208F6F804B812B80C0D9FF81C0DB
:1047DE00DAFFDF50846FD00E8425856F866BFF0E57
:1047EE008623865107E10A0E855DD8B001EF24F0CD
:1047FE0003EF24F01CEF24F080C0D9FF81C0DAFF54
:10480E00DF50846FD00E84278EC003F08FC004F06B
:10481E00000E066E0A0E056EC7EC55F000018451AF
:10482E0003248E6F000E04208F6F8BA721EF24F0D0
:10483E0023EF24F027EF24F08E6D8F1FD8B08F2B2F
:10484E008E518C278F518D2382518311D8B432EF24
:10485E0024F034EF24F043EF24F08BA339EF24F04F
:10486E003BEF24F043EF24F082C0D9FF83C0DAFF80
:10487E0080C0DEFF81C0DDFF90C003F091C004F068
:10488E0092C005F093C006F0000E01EC40F003C09C
:10489E0090F004C091F005C092F006C093F090C065
:1048AE006FF091C070F092C071F093C072F0000E74
:1048BE00736E000E746E000E756E000E766E85ECC5
:1048CE004DF0D8A06DEF24F06FEF24F07AEF24F0C6
:1048DE00000E0001806F000E816F000E826F000EC1
:1048EE00836FCCEF25F000018DBF82EF24F080EFB7
:1048FE0024F013EF25F08C6D8D1FD8B08D2BA7EF04
:10490E0024F090C042F091C043F092C044F093C0A6
:10491E0045F0F90E466E020E476E150E486E500E9D
:10492E00496E09EC34F042C090F043C091F044C09F
:10493E0092F045C093F00001F60E8C27FF0E8D23EA
:10494E008DBFB5EF24F08D5107E10A0E8C5DD8B006
:10495E00B3EF24F0B5EF24F088EF24F0D5EF24F078
:10496E0090C042F091C043F092C044F093C045F025
:10497E00000E466E000E476E200E486E410E496EBA
:10498E0009EC34F042C090F043C091F044C092F074
:10499E0045C093F000018C07D8A08D078C518D1166
:1049AE00D8A4DCEF24F0DEEF24F0B7EF24F090C0B3
:1049BE0042F091C043F092C044F093C045F0000E17
:1049CE00466E000E476E800E486E000E496EE3EC8A
:1049DE0048F0D8B0F5EF24F0F7EF24F0AAEF25F069
:1049EE0000018BA1FDEF24F0FFEF24F009EF25F07D
:1049FE00000E806F000E816F800E826F800E836FAF
:104A0E00CCEF25F0000E806F000E816F800E826F4E
:104A1E00000E836FCCEF25F08DBF1EEF25F08D516C
:104A2E0008E18C05D8A01EEF25F020EF25F0AAEFA7
:104A3E0025F041EF25F090C021F091C022F092C0F8
:104A4E0023F093C024F0F90E256E020E266E150E7D
:104A5E00276E500E286EF4EC31F021C090F022C07B
:104A6E0091F023C092F024C093F00001F60E8C2733
:104A7E00FF0E8D238D5107E10A0E8C5DD8B04AEFE3
:104A8E0025F04CEF25F022EF25F06CEF25F090C0CD
:104A9E0021F091C022F092C023F093C024F0000EBA
:104AAE00256E000E266E200E276E410E286EF4EC3B
:104ABE0031F021C090F022C091F023C092F024C0BA
:104ACE0093F000018C07D8A08D078C518D11D8A4BE
:104ADE0073EF25F075EF25F04EEF25F0FF0E426EC9
:104AEE00FF0E436E7F0E446E7F0E456E90C046F0F5
:104AFE0091C047F092C048F093C049F0E3EC48F003
:104B0E00D8B08CEF25F08EEF25F0AAEF25F000013E
:104B1E008BA194EF25F096EF25F0A0EF25F0000E77
:104B2E00806F000E816F800E826F800E836FCCEFD0
:104B3E0025F0000E806F000E816F800E826F000ECA
:104B4E00836FCCEF25F000018BA1B0EF25F0B2EF13
:104B5E0025F0C4EF25F090C003F091C004F092C090
:104B6E0005F093C006F0BAEC54F003C090F004C008
:104B7E0091F005C092F006C093F090C080F091C005
:104B8E0081F092C082F093C083F01200000E0001FB
:104B9E00AA6F82C0ABF083C0ACF084C0ADF085C00C
:104BAE00AEF0AEBFDFEF25F0DDEF25F0F3EF25F031
:104BBE00010EAA6FABC003F0ACC004F0ADC005F09F
:104BCE00AEC006F0BAEC54F003C0ABF004C0ACF0CB
:104BDE0005C0ADF006C0AEF0000E0001B06F000EC5
:104BEE00AF6F1DC29EF01EC29FF0AA51D8B402EF45
:104BFE0026F004EF26F018EF26F0AA51D8A40AEFFB
:104C0E0026F00CEF26F012EF26F0000E906F2B0E12
:104C1E008F6F16EF26F0000E906F2D0E8F6F8FC0D8
:104C2E00AAF0ABC003F0ACC004F0ADC005F0AEC04E
:104C3E0006F0E4EC49F003040410D8A429EF26F0A2
:104C4E002BEF26F05EEF26F00001AA51D8B432EF1A
:104C5E0026F034EF26F03DEF26F0AAC035F29E077F
:104C6E00D8A09F07000EB06F010EAF6F350EAF25A7
:104C7E00036E020EB021046EC10E056E100E066E8E
:104C8E005DEC54F00001FD0E9E27FF0E9F2380C0A9
:104C9E0013F081C014F0350E156E020E166E9EC006
:104CAE0017F09FC018F080EC4FF0FFEF2AF0ABC06A
:104CBE0003F0ACC004F0ADC005F0AEC006F0E4ECFD
:104CCE0049F003500410D8A46FEF26F071EF26F0D0
:104CDE0091EF26F00001AA51D8B478EF26F07AEFC2
:104CEE0026F083EF26F0AAC035F29E07D8A09F07C4
:104CFE00000EB06F010EAF6F350EAF25036E020EB4
:104D0E00B021046EC50E056E100E066E5DEC54F0ED
:104D1E0049EF26F0000E0001B16F000EB26F800E4B
:104D2E00B36F3F0EB46F000E996F000E986FABC04D
:104D3E006FF0ACC070F0ADC071F0AEC072F0000E8E
:104D4E00736E000E746E000E756E000E766E85EC30
:104D5E004DF0D8B0B5EF26F0B7EF26F096EF27F06E
:104D6E00C4EF26F09AC0B1F09BC0B2F09CC0B3F075
:104D7E009DC0B4F00001984B992BB1C021F0B2C088
:104D8E0022F0B3C023F0B4C024F0000E256E000E46
:104D9E00266E200E276E410E286EF4EC31F021C0E7
:104DAE009AF022C09BF023C09CF024C09DF000011D
:104DBE009A51AB5D036E9B51AC59046E9C51AD592B
:104DCE00056E9D51AE59066E8DEC51F006BEFBEF91
:104DDE0026F006500510041009E1020E035CD8A05F
:104DEE00FBEF26F0FDEF26F0B9EF26F09AC042F069
:104DFE009BC043F09CC044F09DC045F0ABC046F054
:104E0E00ACC047F0ADC048F0AEC049F0E3EC48F09E
:104E1E00D8A014EF27F016EF27F0B9EF26F0000117
:104E2E00B151AB5D036EB251AC59046EB351AD5975
:104E3E00056EB451AE59066E8DEC51F006BE35EFCF
:104E4E0027F006500510041007E1020E035CD8B0DF
:104E5E0033EF27F035EF27F07DEF27F0B1C0ABF041
:104E6E00B2C0ACF0B3C0ADF0B4C0AEF096EF27F068
:104E7E00B1C042F0B2C043F0B3C044F0B4C045F08C
:104E8E00000E466E000E476E200E486E410E496EA5
:104E9E0009EC34F042C0B1F043C0B2F044C0B3F0FC
:104EAE0045C0B4F000019807D8A09907B151AB5D89
:104EBE00036EB251AC59046EB351AD59056EB45177
:104ECE00AE59066E8DEC51F006BE7BEF27F0065004
:104EDE000510041007E1020E035CD8B079EF27F03D
:104EEE007BEF27F07DEF27F035EF27F0ABC042F0D8
:104EFE00ACC043F0ADC044F0AEC045F0B1C046F01A
:104F0E00B2C047F0B3C048F0B4C049F0E3EC48F08B
:104F1E00D8A094EF27F096EF27F03FEF27F086C04A
:104F2E0092F092C093F07CBE9FEF27F0A1EF27F096
:104F3E00A7EF27F07BC08BF07CC08CF0ACEF27F096
:104F4E00000E00018C6F060E8B6F8BC096F08CC01E
:104F5E0097F00001964B972B660E9319D8A4BAEFD3
:104F6E0027F0BCEF27F0DCEF27F099BFC3EF27F057
:104F7E00C1EF27F0CFEF27F0000EB16F000EB26F2A
:104F8E00800EB36F3F0EB46F000E996F000E986FC8
:104F9E00670E9219D8B4D6EF27F0D8EF27F0DCEFD2
:104FAE0027F09851962799519723000EA96F000E5E
:104FBE00A86FABC0A0F0ACC0A1F0ADC0A2F0AEC067
:104FCE00A3F0B1C09AF0B2C09BF0B3C09CF0B4C0D5
:104FDE009DF06DEF28F0A0C042F0A1C043F0A2C03A
:104FEE0044F0A3C045F0B1C046F0B2C047F0B3C024
:104FFE0048F0B4C049F009EC34F042C05BF043C055
:10500E005CF044C05DF045C05EF011EC3DF05BC05D
:10501E00A4F05CC0A5F05DC0A6F05EC0A7F0A4C071
:10502E005BF0A5C05CF0A6C05DF0A7C05EF060ECC2
:10503E0048F05BC094F05CC095F0A0C03AF0A1C0FF
:10504E003BF0A2C03CF0A3C03DF0A4C025F0A5C02B
:10505E0026F0A6C027F0A7C028F0B1C021F0B2C03C
:10506E0022F0B3C023F0B4C024F0F4EC31F021C030
:10507E003EF022C03FF023C040F024C041F08DEC42
:10508E0053F03AC0A0F03BC0A1F03CC0A2F03DC02E
:10509E00A3F0B1C042F0B2C043F0B3C044F0B4C00C
:1050AE0045F0000E466E000E476E200E486E410E05
:1050BE00496E09EC34F042C0B1F043C0B2F044C0C6
:1050CE00B3F045C0B4F00001A84BA92B9651A85DD2
:1050DE00A951800A876F9751800A8759D8A07AEF15
:1050EE0028F07CEF28F0F2EF27F0B1C021F0B2C02B
:1050FE0022F0B3C023F0B4C024F0000E256E000ED3
:10510E00266EA00E276E400E286EF4EC31F021C0F4
:10511E00A4F022C0A5F023C0A6F024C0A7F0A0C022
:10512E0042F0A1C043F0A2C044F0A3C045F0A4C019
:10513E0046F0A5C047F0A6C048F0A7C049F0E3EC82
:10514E0048F0D8B0ADEF28F0AFEF28F0BAEF28F066
:10515E00000E0001A46F000EA56F000EA66F000ECC
:10516E00A76FE3EF28F0A0C06FF0A1C070F0A2C04F
:10517E0071F0A3C072F0A4C073F0A5C074F0A6C005
:10518E0075F0A7C076F085EC4DF0D8A0D1EF28F0E1
:10519E00D3EF28F0E3EF28F0000194B1D9EF28F017
:1051AE00DBEF28F0E3EF28F0000EA46F000EA56FE2
:1051BE00000EA66F000EA76FABC011F0ACC012F0C0
:1051CE00ADC013F0AEC014F0A4C015F0A5C016F01B
:1051DE00A6C017F0A7C018F000EC2BF011C0A0F07D
:1051EE0012C0A1F013C0A2F014C0A3F0A0C042F0F0
:1051FE00A1C043F0A2C044F0A3C045F0000E256E3E
:10520E00000E266E200E276E410E286E9AC021F0DB
:10521E009BC022F09CC023F09DC024F0F4EC31F032
:10522E0021C046F022C047F023C048F024C049F008
:10523E00E3EC48F0D8A026EF29F028EF29F051EF43
:10524E0029F00001984B992B9AC021F09BC022F0B7
:10525E009CC023F09DC024F0000E256E000E266E1D
:10526E00200E276E410E286EF4EC31F021C09AF01C
:10527E0022C09BF023C09CF024C09DF0660E00015E
:10528E009319D8A44DEF29F04FEF29F051EF29F0E3
:10529E00964B972B9AC0B1F09BC0B2F09CC0B3F066
:1052AE009DC0B4F098C089F099C08AF0000E00013C
:1052BE00916F000E8E6F000E8D6F000EA96F000E97
:1052CE00A86F4FEF2AF0A0C042F0A1C043F0A2C0D9
:1052DE0044F0A3C045F0B1C046F0B2C047F0B3C031
:1052EE0048F0B4C049F009EC34F042C05BF043C062
:1052FE005CF044C05DF045C05EF011EC3DF05BC06B
:10530E00A4F05CC0A5F05DC0A6F05EC0A7F0A4C07E
:10531E005BF0A5C05CF0A6C05DF0A7C05EF060ECCF
:10532E0048F05CBEA6EF29F05C5007E10A0E5B5C0C
:10533E00D8B0A4EF29F0A6EF29F0B6EF29F0A4C05B
:10534E005BF0A5C05CF0A6C05DF0A7C05EF060EC9F
:10535E0048F05BC094F05CC095F0BBEF29F0000EF6
:10536E000001956F090E946F00019151D8A4C2EF00
:10537E0029F0C4EF29F0ECEF29F08ABFCBEF29F02A
:10538E00C9EF29F0ECEF29F0350EAF25D96E020EDC
:10539E00B021DA6E2E0EDF6EAF4BB02B9E07D8A06B
:1053AE009F07010E916FECEF29F0350EAF25D96EE8
:1053BE00020EB021DA6E300EDF6EAF4BB02B9E07B1
:1053CE00D8A09F078D07D8A08E078D518E11D8A417
:1053DE00F3EF29F0F5EF29F0DCEF29F0350EAF25CC
:1053EE00D96E020EB021DA6E9451300FDF6EAF4BD4
:1053FE00B02B9E07D8A09F07A0C03AF0A1C03BF0EB
:10540E00A2C03CF0A3C03DF0A4C025F0A5C026F07C
:10541E00A6C027F0A7C028F0B1C021F0B2C022F07C
:10542E00B3C023F0B4C024F0F4EC31F021C03EF050
:10543E0022C03FF023C040F024C041F08DEC53F069
:10544E003AC0A0F03BC0A1F03CC0A2F03DC0A3F01A
:10545E00B1C042F0B2C043F0B3C044F0B4C045F0A6
:10546E00000E466E000E476E200E486E410E496EBF
:10547E0009EC34F042C0B1F043C0B2F044C0B3F016
:10548E0045C0B4F000018907D8A08A07A84BA92B04
:10549E009651A85DA951800A876F9751800A875946
:1054AE00D8B05CEF2AF05EEF2AF06CEF2AF0B0BFB6
:1054BE006AEF2AF0B05109E14B0EAF5DD8A06AEF4A
:1054CE002AF06CEF2AF06AEF29F0000EA96F4F0E4A
:1054DE00A86F350EA825D96E020EA921DA6E000E20
:1054EE00DF6E350E876F020E886FAF51875FB0513A
:1054FE00885BA8518725036EA9518821046E350E4D
:10550E00056E020E066EAFC007F0B0C008F0F4ECE8
:10551E0052F00001AF51A85DAF6FB051A959B06FF5
:10552E00AA51D8A49DEF2AF0A0EF2AF0010EA1EF08
:10553E002AF0000EA86FA96BFBA3A8EF2AF0AAEF22
:10554E002AF0D8EF2AF0BAEF2AF0AF07D8A0B007AA
:10555E00350EAF25D96E020EB021DA6E300EDF6E2B
:10556E009E07D8A09F079E51A85DA951800A876FFC
:10557E009F51800A8759D8B0C7EF2AF0C9EF2AF099
:10558E00D8EF2AF0AF51A85DA951800A876FB051AC
:10559E00800A8759D8A0D6EF2AF0D8EF2AF0ACEFC0
:1055AE002AF0AA51D8B4DEEF2AF0E0EF2AF0EBEFA2
:1055BE002AF0AF07D8A0B007350EAF25D96E020E70
:1055CE00B021DA6EAAC0DFFFA8519E5FA9519F5B82
:1055DE0080C013F081C014F0350EAF25156E020E8B
:1055EE00B021166E9EC017F09FC018F080EC4FF0E1
:1055FE0012001450800B1D6E145014241F6E13AE27
:10560E000BEF2BF00DEF2BF00EEF2BF01F801F503A
:10561E00D8B414EF2BF016EF2BF02BEF2BF01F2836
:10562E00D8A41CEF2BF01EEF2BF026EF2BF0000E64
:10563E00116E000E126E000E136E000E146E138E8F
:10564E00000E146E33EF2BF0000E116E000E126E64
:10565E00000E136E000E146E1850800B1E6E1D5031
:10566E001E18D8B43DEF2BF03FEF2BF040EF2BF090
:10567E001D8C185018241E6E17AE48EF2BF04AEFF3
:10568E002BF04BEF2BF01E801E50D8B451EF2BF0A9
:10569E0053EF2BF068EF2BF01E28D8A459EF2BF008
:1056AE005BEF2BF063EF2BF0000E156E000E166EF7
:1056BE00000E176E000E186E178E000E186E70EF1D
:1056CE002BF0000E156E000E166E000E176E000EED
:1056DE00186E1F501E5CD8B077EF2BF079EF2BF0C1
:1056EE00A0EF2BF01DAC7EEF2BF080EF2BF082EFB6
:1056FE002BF0800E1D1A1FC020F01EC01FF020C000
:10570E001EF011C020F015C011F020C015F012C00F
:10571E0020F016C012F020C016F013C020F017C0F3
:10572E0013F020C017F014C020F018C014F020C0E1
:10573E0018F0000E206E1F501EC019F01A6A195E66
:10574E00000E1A5A1ABEB5EF2BF01A5009E11A0EB6
:10575E00195CD8A0B5EF2BF0B7EF2BF0EEEF2BF0D6
:10576E001150121013101410D8A4C0EF2BF0C3EF69
:10577E002BF0010EC4EF2BF0000E206E000E116EFA
:10578E00000E126E000E136E000E146E1EC01FF071
:10579E00F7EF2BF020A0D6EF2BF0D8EF2BF0DEEFAB
:1057AE002BF0D89020300109206EE0EF2BF0D8902E
:1057BE00203211A0E5EF2BF0E7EF2BF0E8EF2BF006
:1057CE00208E143414321332123211321F2A1E500C
:1057DE001F5CD8A0F5EF2BF0F7EF2BF0D1EF2BF0ED
:1057EE001DBCFCEF2BF0FEEF2BF03EEF2CF01F500C
:1057FE00D8A404EF2CF006EF2CF010EF2CF0000ED6
:10580E00116E000E126E000E136E000E146E5FEF10
:10581E002DF0155011261650122217501322185023
:10582E00142214A01DEF2CF01FEF2CF0CBEF2CF058
:10583E0020A024EF2CF026EF2CF02CEF2CF0D8909B
:10584E0020300109206E2EEF2CF0D890203211A0BE
:10585E0033EF2CF035EF2CF036EF2CF0208E143485
:10586E0014321332123211321F2ACBEF2CF0155094
:10587E00115C16501258175013581450800A196E96
:10588E001850800A1958D8B04FEF2CF051EF2CF069
:10589E007CEF2CF01150155C196E125016581A6EC2
:1058AE00135017581B6E145018581C6EFF0E1924E7
:1058BE00116EFF0E1A20126EFF0E1B20136EFF0EBE
:1058CE001C20146E800E1D1A206C2050D8A472EF6E
:1058DE002CF074EF2CF084EF2CF0010E1126000E3C
:1058EE0012221322142284EF2CF01550115E165042
:1058FE00125A1750135A1850145A115012101310DE
:10590E001410D8A48DEF2CF08FEF2CF0C4EF2CF0E8
:10591E002050D8A495EF2CF097EF2CF0C4EF2CF07C
:10592E00000E116E000E126E000E136E000E146E2F
:10593E005FEF2DF0D890113612361336143620AE96
:10594E00ABEF2CF0ADEF2CF0AEEF2CF0118020A0D1
:10595E00B3EF2CF0B5EF2CF0B9EF2CF0D880203649
:10596E00BBEF2CF0D89020361F50D8B4C1EF2CF0DE
:10597E00C3EF2CF0C4EF2CF01F0613AEC9EF2CF0C2
:10598E00CBEF2CF0A1EF2CF0000E1E6E20AED2EF5E
:10599E002CF0D4EF2CF0ECEF2CF020C019F07F0E91
:1059AE001916D8B4DDEF2CF0DFEF2CF0E3EF2CF06E
:1059BE00010E1E6EECEF2CF011A0E8EF2CF0EAEFCA
:1059CE002CF0ECEF2CF0DFEF2CF01E50D8B4F2EFF1
:1059DE002CF0F4EF2CF01FEF2DF0010E1126000E1F
:1059EE0012221322142214A0FFEF2CF001EF2DF03F
:1059FE001FEF2DF011C019F012C01AF013C01BF0DA
:105A0E0014C01CF01C341C321B321A32193219C04D
:105A1E0011F01AC012F01BC013F01CC014F01F2896
:105A2E00D8B41CEF2DF01EEF2DF01FEF2DF01F2A16
:105A3E001F28D8B425EF2DF027EF2DF02FEF2DF0E6
:105A4E001F50D8A42DEF2DF02FEF2DF041EF2DF09C
:105A5E00000E116E000E126E000E136E000E146EFE
:105A6E001F50D8A43DEF2DF03FEF2DF041EF2DF05C
:105A7E00000E1D6E1FA046EF2DF048EF2DF04BEFE0
:105A8E002DF0138E4CEF2DF0139ED8901F30146E08
:105A9E001DAE54EF2DF056EF2DF057EF2DF0148E66
:105AAE0011C011F012C012F013C013F014C014F094
:105ABE0012004EC05FF04FC060F050C061F051C098
:105ACE0062F05FC077F060C078F061C079F062C0BC
:105ADE007AF0000E7714526E000E7814536E800E0C
:105AEE007914546E7F0E7A14556E800E541809E197
:105AFE007F0E551852105310D8A488EF2DF08AEF50
:105B0E002DF0B8EF2DF04EC025F04FC026F050C04E
:105B1E0027F051C028F04EC021F04FC022F050C0E7
:105B2E0023F051C024F0F4EC31F021C011F022C06A
:105B3E0012F023C013F024C014F04EC015F04FC065
:105B4E0016F050C017F051C018F000EC2BF011C039
:105B5E004EF012C04FF013C050F014C051F0BAEF17
:105B6E002FF07ABEC7EF2DF07A507910781006E13B
:105B7E007704D8B0C5EF2DF0C7EF2DF004EF2EF05F
:105B8E00FF0E7714526EFF0E7814536EFF0E7914BB
:105B9E00546E7F0E7A14556E525053105410551089
:105BAE00D8A4DCEF2DF0DEEF2DF0E8EF2DF04EC097
:105BBE004EF04FC04FF050C050F051C051F0BAEF00
:105BCE002FF07ABEEFEF2DF0EDEF2DF004EF2EF06B
:105BDE00000E02011C6F210E1B6FC00E036E100E05
:105BEE00046E13EC56F003C04EF004C04FF005C027
:105BFE0050F006C051F0BAEF2FF0170E526E77C06C
:105C0E0053F078C054F079C055F07AC056F0526611
:105C1E0013EF2EF01BEF2EF056345632553254320F
:105C2E005332522E0EEF2EF053C06FF054C070F060
:105C3E0055C071F056C072F06F5070107110721026
:105C4E00D8A42CEF2EF02EEF2EF05EEF2EF0000EDD
:105C5E005B6E000E5C6E000E5D6E000E5E6E43EFB0
:105C6E002EF0D8907736783679367A36010E5B2656
:105C7E00000E5C225D225E2279AE48EF2EF04AEFD6
:105C8E002EF038EF2EF0FF0E5B24526EFF0E5C20CE
:105C9E00536EFF0E5D20546EFF0E5E20556E5250F9
:105CAE006F5E5350705A5450715A5550725A810E3D
:105CBE006F26FF0E7022FF0E7122FF0E7222FF0E54
:105CCE007714526EFF0E7814536E7F0E7914546E45
:105CDE00000E7A14556E000E5210776E000E531091
:105CEE00786E800E5410796E000E55107A6E6FA07D
:105CFE0083EF2EF085EF2EF08DEF2EF07750772676
:105D0E0078507822795079227A507A22723472320F
:105D1E00713270326F327750772678507822795000
:105D2E0079227A507A22000E576E000E586E000EAF
:105D3E00596E000E5A6E57C063F058C064F059C0C9
:105D4E0065F05AC066F0000E736E000E746E000E93
:105D5E00756E010E766EFCEF2EF057507324676E43
:105D6E0058507420686E59507520696E5A507620BE
:105D7E006A6E6750775C68507858695079587A50D7
:105D8E00800A526E6A50800A5258D8A0D1EF2EF077
:105D9E00D3EF2EF0EFEF2EF067507324576E68504E
:105DAE007420586E69507520596E6A5076205A6E5E
:105DBE006750775E6850785A6950795A6A507A5AA5
:105DCE007350632674506422755065227650662295
:105DDE007750772678507822795079227A507A2225
:105DEE00D8907632753274327332735074107510D7
:105DFE007610D8A405EF2FF007EF2FF0B4EF2EF0AA
:105E0E007750781079107A10D8B410EF2FF012EF77
:105E1E002FF070EF2FF0000E6B6E000E6C6E800E7A
:105E2E006D6E3F0E6E6E6BC042F06CC043F06DC077
:105E3E0044F06EC045F0000E466E000E476E800EAA
:105E4E00486E3F0E496EE3EC48F0D8A031EF2FF0CC
:105E5E0033EF2FF070EF2FF0000E6B6E000E6C6EA6
:105E6E00800E6D6E3F0E6E6E000E426E000E436E15
:105E7E00800E446E3F0E456E6BC046F06CC047F010
:105E8E006DC048F06EC049F0E3EC48F0D8B052EF68
:105E9E002FF054EF2FF05CEF2FF0020E6326000E62
:105EAE0064226522662270EF2FF0010E6314526E8B
:105EBE00000E6414536E000E6514546E000E6614BC
:105ECE00556E5250632653506422545065225550DD
:105EDE00662263C052F064C053F065C054F066C0D1
:105EEE0055F055345532543253325232000E52243C
:105EFE00776E000E5320786E000E5420796E3F0E92
:105F0E0055207A6E6FC052F070C053F071C054F0CD
:105F1E0072C055F0170ED890523653365436553649
:105F2E00E82E92EF2FF0525077265350782254508D
:105F3E00792255507A2277C05FF078C060F079C030
:105F4E0061F07AC062F05FC06BF060C06CF061C04F
:105F5E006DF062C06EF06BC04EF06CC04FF06DC055
:105F6E0050F06EC051F01200B7C0D9FFB8C0DAFFC2
:105F7E00DECFF6FFDDCFF7FFF86A0800F550250AF1
:105F8E00D8A4CCEF2FF0CEEF2FF0DEEF31F0B7C06C
:105F9E00D9FFB8C0DAFFDE2A000EDD22000E0201A4
:105FAE001E6F000E1D6F1DC2FBF07B687C68000E1D
:105FBE000001BF6F000EBE6F10EF30F0FB83B7C055
:105FCE00D9FFB8C0DAFFDE2A000EDD2210EF30F066
:105FDE00000EBF6F010EBE6F10EF30F0B7C0D9FFCD
:105FEE00B8C0DAFFDECFF6FFDDCFF7FFF86A0800A4
:105FFE00F550BB6FBC6BBC51000AD8B409EF30F042
:10600E00EFEF2FF0BB51300AD8B4E5EF2FF0EFEFE2
:10601E002FF0BE51BF11D8B417EF30F019EF30F09A
:10602E00F5EF2FF0B7C0D9FFB8C0DAFFDECFF6FF1D
:10603E00DDCFF7FFF86A0800F5502E0AD8A42AEF34
:10604E0030F02CEF30F09CEF30F0000E7C6E000E36
:10605E007B6EB7C0D9FFB8C0DAFFDE2A000EDD2294
:10606E00B7C0D9FFB8C0DAFFDECFF6FFDDCFF7FF3E
:10607E00F86A0800F5502A0AD8A448EF30F04AEF23
:10608E0030F067EF30F0B7C0D9FFB8C0DAFFDE2AC4
:10609E00000EDD22B9C0D9FFBAC0DAFFDFCFBBF0E8
:1060AE00020EDE26DFCFBCF0000EDD22BBC0D9FF14
:1060BE00BCC0DAFFDECF7BF0DDCF7CF09CEF30F0A2
:1060CE00B7C0D9FFB8C0DAFFDECF09F0DDCF0AF0D6
:1060DE0023EC3FF009C07BF00AC07CF07EEF30F07D
:1060EE00B7C0D9FFB8C0DAFFDE2A000EDD22B7C076
:1060FE00D9FFB8C0DAFFDECFF6FFDDCFF7FFF86AC3
:10610E000800F5CFBBF0D00E0001BB25BC6FBD6BF8
:10611E00FF0EBD23BD5109E10A0EBC5DD8A09AEF5A
:10612E0030F09CEF30F077EF30F0B7C0D9FFB8C049
:10613E00DAFFDECFC9F0DDCFCAF0C9C0F6FFCAC0A4
:10614E00F7FFF86A0800F550640AD8B4B1EF30F0E2
:10615E00B3EF30F0C2EF30F0C9C0F6FFCAC0F7FFA0
:10616E00F86A0800F550690AD8A4C0EF30F0C2EF03
:10617E0030F005EF31F0B9C0D9FFBAC0DAFFDFCF8A
:10618E00BBF0020EDE26DFCFBCF0000EDD22BBC060
:10619E00D9FFBCC0DAFFDECFC0F0DDCFC1F0000EFC
:1061AE00C1BFFF0EC26FC36FC46FC56FC66FC76F1F
:1061BE00010EC925BB6F000ECA21BC6FB7C0D9FF37
:1061CE00B8C0DAFFBBC0DEFFBCC0DDFFB5C01EF03D
:1061DE00B6C01FF0C0C020F0C1C021F0C2C022F076
:1061EE00C3C023F0C4C024F0C5C025F0C6C026F03D
:1061FE00C7C027F04DEC39F0F3EF31F0B7C0D9FF3F
:10620E00B8C0DAFFDECFC9F0DDCFCAF0C9C0F6FFE5
:10621E00CAC0F7FFF86A0800F5CFC8F023EF31F0D7
:10622E00C94BCA2B3CEF31F06C0EC86F3CEF31F00E
:10623E00000EC86F3CEF31F0C851BB6FBC6BBC5148
:10624E00000AD8B42DEF31F01FEF31F0BB514C0ADC
:10625E00D8B417EF31F02A0AD8B41BEF31F00A0A7E
:10626E00D8B417EF31F01FEF31F0C9C0F6FFCAC036
:10627E00F7FFF86A0800F550660AD8A449EF31F026
:10628E004BEF31F0D5EF31F081EF31F0B9C0D9FFDE
:10629E00BAC0DAFFDFCFBBF0040EDE26DFCFBCF0D4
:1062AE00000EDD22BBC0D9FFBCC0DAFFDECFC0F0CE
:1062BE00DECFC1F0DECFC2F0DECFC3F096EF31F00D
:1062CE00B9C0D9FFBAC0DAFFDFCFBBF0040EDE26AD
:1062DE00DFCFBCF0000EDD22BBC0D9FFBCC0DAFFA1
:1062EE00DECFC0F0DECFC1F0DECFC2F0DECFC3F026
:1062FE0096EF31F0C851BB6FBC6BBC51000AD8B4DD
:10630E008BEF31F096EF31F0BB514C0AD8B467EFFA
:10631E0031F0200AD8B44DEF31F096EF31F0010E86
:10632E00C925BB6F000ECA21BC6FB7C0D9FFB8C05C
:10633E00DAFFBBC0DEFFBCC0DDFFBEEF31F0B5C083
:10634E0080F0B6C081F0C0C082F0C1C083F0C2C080
:10635E0084F0C3C085F0C9C0F6FFCAC0F7FFF86A63
:10636E000800F5CF86F0CDEC25F0F3EF31F0C9C083
:10637E00F6FFCAC0F7FFF86A0800F550BB6FBC6B9A
:10638E00BC51000AD8B4CEEF31F0D5EF31F0BB518D
:10639E00660AD8B4A6EF31F0D5EF31F0B7C0D9FF09
:1063AE00B8C0DAFFDE2A000EDD22F3EF31F0B7C0FF
:1063BE00D9FFB8C0DAFFDECFF6FFDDCFF7FFF86A00
:1063CE000800F550036E046AB5C005F0B6C006F0BD
:1063DE0040EC4BF0D5EF31F012002450800B2D6EB7
:1063EE0024502424336E23AEFFEF31F001EF32F050
:1063FE0002EF32F033803350D8B408EF32F00AEFA8
:10640E0032F01DEF32F03328D8A410EF32F012EF35
:10641E0032F01AEF32F0000E216E000E226E000ED8
:10642E00236E000E246E238E25EF32F0000E216EA9
:10643E00000E226E000E236E000E246E2850800B6E
:10644E002D1A285028242E6E27AE30EF32F032EF60
:10645E0032F033EF32F02E802E50D8B439EF32F0C6
:10646E003BEF32F04EEF32F02E28D8A441EF32F04F
:10647E0043EF32F04BEF32F0000E256E000E266E1B
:10648E00000E276E000E286E278E56EF32F0000E8D
:10649E00256E000E266E000E276E000E286E2E50F4
:1064AE00D8B45CEF32F05EEF32F066EF32F033507C
:1064BE00D8A464EF32F066EF32F070EF32F0000ED7
:1064CE00216E000E226E000E236E000E246E08EF5B
:1064DE0034F027502102F3CF38F0F4CF39F0385092
:1064EE002F6E306A316A326A3950346E356A366AC6
:1064FE00376A26502202F3CF38F0F4CF39F03850F5
:10650E002F26000E30223122322239503426000E30
:10651E0035223622372225502302F3CF38F0F4CF1E
:10652E0039F038502F26000E3022312232223950C7
:10653E003426000E35223622372231C032F030C0DA
:10654E0031F02FC030F02F6A25502202F3CF38F0F1
:10655E00F4CF39F038502F2639503022000E312228
:10656E00000E322226502102F3CF38F0F4CF39F04C
:10657E0038502F2639503022000E3122000E322292
:10658E0031C032F030C031F02FC030F02F6A2550BC
:10659E002102F3CF38F0F4CF39F038502F2639508E
:1065AE003022000E3122000E322227502202F3CF6B
:1065BE0038F0F4CF39F03850342639503522000EE9
:1065CE003622000E372226502302F3CF38F0F4CFB6
:1065DE0039F03850342639503522000E3622000E4E
:1065EE00372227502302F3CF38F0F4CF39F038504A
:1065FE00296E39502A6E2B6A2C6A2BC02CF02AC0B9
:10660E002BF029C02AF0296A295034262A50352227
:10661E002B5036222C5037222FC029F030C02AF0B2
:10662E0031C02BF032C02CF0190E23EF33F0D8907E
:10663E002C322B322A322932E82E1EEF33F029501B
:10664E0034262A5035222B5036222C50372231C078
:10665E0032F030C031F02FC030F02F6A2E5033C0E0
:10666E0029F02A6A2926000E2A22820E2924386E43
:10667E00FF0E2A20396E59EF33F0D8903436353666
:10668E003636373632AE4EEF33F050EF33F051EF41
:10669E0033F03480D8902F363036313632363806D5
:1066AE00D8A0390636AE5EEF33F060EF33F044EF2C
:1066BE0033F0000E2E6E32AE67EF33F069EF33F02B
:1066CE008DEF33F0FF0E2F14296EFF0E30142A6E4D
:1066DE00FF0E31142B6E7F0E32142C6E29502A10A1
:1066EE002B102C10D8B47EEF33F080EF33F084EF04
:1066FE0033F0010E2E6E8DEF33F034A089EF33F0B0
:10670E008BEF33F08DEF33F080EF33F02E50D8B4A3
:10671E0093EF33F095EF33F0B9EF33F0010E3426EB
:10672E00000E35223622372237A0A0EF33F0A2EF2B
:10673E0033F0B9EF33F034C029F035C02AF036C04B
:10674E002BF037C02CF02C342C322B322A3229323B
:10675E0029C034F02AC035F02BC036F02CC037F0EB
:10676E00384A392A39BEC4EF33F0395008E1382897
:10677E00D8A0C4EF33F0C6EF33F0D0EF33F0000EF5
:10678E00346E000E356E800E366E7F0E376EFEEF57
:10679E0033F039BEDDEF33F0395006E13804D8B0AE
:1067AE00DBEF33F0DDEF33F0E9EF33F0000E346E54
:1067BE00000E356E000E366E000E376E000E2D6E0C
:1067CE00FEEF33F038C033F0FF0E3416FF0E3516E1
:1067DE007F0E3616000E371633A0F8EF33F0FAEFB1
:1067EE0033F0FBEF33F0368ED8903330376E2D50BA
:1067FE00371234C021F035C022F036C023F037C036
:10680E0024F012004550800B526E45504524596EAF
:10681E0044AE14EF34F016EF34F017EF34F0598025
:10682E005950D8B41DEF34F01FEF34F034EF34F07C
:10683E005928D8A425EF34F027EF34F02FEF34F099
:10684E00000E426E000E436E000E446E000E456E3C
:10685E00448E000E456E3CEF34F0000E426E000E7C
:10686E00436E000E446E000E456E4950800B521A58
:10687E00495049245A6E48AE47EF34F049EF34F090
:10688E004AEF34F05A805A50D8B450EF34F052EFE9
:10689E0034F067EF34F05A28D8A458EF34F05AEF9A
:1068AE0034F062EF34F0000E466E000E476E000EAE
:1068BE00486E000E496E488E000E496E6FEF34F032
:1068CE00000E466E000E476E000E486E000E496EAC
:1068DE004650471048104910D8A478EF34F07AEF9C
:1068EE0034F092EF34F0000E426E000E436E000E46
:1068FE00446E000E456E800E44127F0E45125250AD
:10690E00451242C042F043C043F044C044F045C07B
:10691E0045F0D5EF35F05950D8A498EF34F09AEFF2
:10692E0034F0A4EF34F0000E426E000E436E000EF3
:10693E00446E000E456ED5EF35F05A5059C04AF0F0
:10694E004B6A4A5E000E4B5A7F0E4A24536E000E5F
:10695E004B20546E42C04EF043C04FF044C050F036
:10696E0045C051F0000E426E000E436E000E446E96
:10697E00000E456E000E556E000E566E000E576ED2
:10698E00000E586E000E5A6E05EF35F05A50D8B400
:10699E00D3EF34F0D5EF34F0ECEF34F0D8904E3630
:1069AE004F3650365136D8904236433644364536F9
:1069BE0058AEE4EF34F0E6EF34F0E7EF34F0428017
:1069CE00D890553656365736583646504E5C475048
:1069DE004F584850505849505158D8A0F9EF34F0FC
:1069EE00FBEF34F004EF35F0588C46504E5E4750B6
:1069FE004F5A4850505A4950515A5A2A190E5A64F1
:106A0E000BEF35F00DEF35F0CDEF34F04E504F105B
:106A1E0050105110D8B416EF35F018EF35F030EFA6
:106A2E0035F0558030EF35F0D89042364336443647
:106A3E00453658AE25EF35F027EF35F028EF35F017
:106A4E004280D89055365636573658365306D8A00B
:106A5E00540644AE35EF35F037EF35F01BEF35F019
:106A6E00000E5A6E58AE3EEF35F040EF35F064EF43
:106A7E0035F0FF0E55144A6EFF0E56144B6EFF0E78
:106A8E0057144C6E7F0E58144D6E4A504B104C10CE
:106A9E004D10D8B455EF35F057EF35F05BEF35F0BC
:106AAE00010E5A6E64EF35F042A060EF35F062EFE2
:106ABE0035F064EF35F057EF35F05A50D8B46AEF31
